{
	"PolarAI/Masterchef_HKHH.sol": {
		"MasterChef": {
			"abi": [
				{
					"inputs": [
						{
							"internalType": "contract SushiToken",
							"name": "_sushi",
							"type": "address"
						}
					],
					"stateMutability": "nonpayable",
					"type": "constructor"
				},
				{
					"anonymous": false,
					"inputs": [
						{
							"indexed": true,
							"internalType": "address",
							"name": "user",
							"type": "address"
						},
						{
							"indexed": true,
							"internalType": "uint256",
							"name": "pid",
							"type": "uint256"
						},
						{
							"indexed": false,
							"internalType": "uint256",
							"name": "amount",
							"type": "uint256"
						}
					],
					"name": "Deposit",
					"type": "event"
				},
				{
					"anonymous": false,
					"inputs": [
						{
							"indexed": true,
							"internalType": "address",
							"name": "user",
							"type": "address"
						},
						{
							"indexed": true,
							"internalType": "uint256",
							"name": "pid",
							"type": "uint256"
						},
						{
							"indexed": false,
							"internalType": "uint256",
							"name": "amount",
							"type": "uint256"
						}
					],
					"name": "Withdraw",
					"type": "event"
				},
				{
					"inputs": [
						{
							"internalType": "contract IERC20",
							"name": "_lpToken",
							"type": "address"
						}
					],
					"name": "add",
					"outputs": [],
					"stateMutability": "nonpayable",
					"type": "function"
				},
				{
					"inputs": [
						{
							"internalType": "uint256",
							"name": "_pid",
							"type": "uint256"
						},
						{
							"internalType": "uint256",
							"name": "_amount",
							"type": "uint256"
						}
					],
					"name": "deposit",
					"outputs": [],
					"stateMutability": "nonpayable",
					"type": "function"
				},
				{
					"inputs": [
						{
							"internalType": "uint256",
							"name": "",
							"type": "uint256"
						}
					],
					"name": "poolInfo",
					"outputs": [
						{
							"internalType": "contract IERC20",
							"name": "lpToken",
							"type": "address"
						},
						{
							"internalType": "uint256",
							"name": "allocPoint",
							"type": "uint256"
						},
						{
							"internalType": "uint256",
							"name": "lastRewardBlock",
							"type": "uint256"
						},
						{
							"internalType": "uint256",
							"name": "accSushiPerShare",
							"type": "uint256"
						}
					],
					"stateMutability": "view",
					"type": "function"
				},
				{
					"inputs": [],
					"name": "poolLength",
					"outputs": [
						{
							"internalType": "uint256",
							"name": "",
							"type": "uint256"
						}
					],
					"stateMutability": "view",
					"type": "function"
				},
				{
					"inputs": [],
					"name": "startBlock",
					"outputs": [
						{
							"internalType": "uint256",
							"name": "",
							"type": "uint256"
						}
					],
					"stateMutability": "view",
					"type": "function"
				},
				{
					"inputs": [],
					"name": "sushi",
					"outputs": [
						{
							"internalType": "contract SushiToken",
							"name": "",
							"type": "address"
						}
					],
					"stateMutability": "view",
					"type": "function"
				},
				{
					"inputs": [],
					"name": "totalAllocPoint",
					"outputs": [
						{
							"internalType": "uint256",
							"name": "",
							"type": "uint256"
						}
					],
					"stateMutability": "view",
					"type": "function"
				},
				{
					"inputs": [
						{
							"internalType": "uint256",
							"name": "",
							"type": "uint256"
						},
						{
							"internalType": "address",
							"name": "",
							"type": "address"
						}
					],
					"name": "userInfo",
					"outputs": [
						{
							"internalType": "uint256",
							"name": "amount",
							"type": "uint256"
						},
						{
							"internalType": "uint256",
							"name": "rewardDebt",
							"type": "uint256"
						}
					],
					"stateMutability": "view",
					"type": "function"
				},
				{
					"inputs": [
						{
							"internalType": "uint256",
							"name": "_pid",
							"type": "uint256"
						},
						{
							"internalType": "uint256",
							"name": "_amount",
							"type": "uint256"
						}
					],
					"name": "withdraw",
					"outputs": [],
					"stateMutability": "nonpayable",
					"type": "function"
				}
			],
			"devdoc": {
				"kind": "dev",
				"methods": {},
				"version": 1
			},
			"evm": {
				"assembly": "    /* \"PolarAI/Masterchef_HKHH.sol\":83:5573  contract MasterChef {... */\n  mstore(0x40, 0x80)\n    /* \"PolarAI/Masterchef_HKHH.sol\":1295:1296  0 */\n  0x00\n    /* \"PolarAI/Masterchef_HKHH.sol\":1262:1296  uint256 public totalAllocPoint = 0 */\n  0x03\n  sstore\n    /* \"PolarAI/Masterchef_HKHH.sol\":1404:1405  0 */\n  0x00\n    /* \"PolarAI/Masterchef_HKHH.sol\":1376:1405  uint256 public startBlock = 0 */\n  0x04\n  sstore\n    /* \"PolarAI/Masterchef_HKHH.sol\":1570:1653  constructor(... */\n  callvalue\n  dup1\n  iszero\n  tag_1\n  jumpi\n  0x00\n  dup1\n  revert\ntag_1:\n  pop\n  mload(0x40)\n  sub(codesize, bytecodeSize)\n  dup1\n  bytecodeSize\n  dup4\n  codecopy\n  dup2\n  dup2\n  add\n  0x40\n  mstore\n  0x20\n  dup2\n  lt\n  iszero\n  tag_2\n  jumpi\n  0x00\n  dup1\n  revert\ntag_2:\n  dup2\n  add\n  swap1\n  dup1\n  dup1\n  mload\n  swap1\n  0x20\n  add\n  swap1\n  swap3\n  swap2\n  swap1\n  pop\n  pop\n  pop\n    /* \"PolarAI/Masterchef_HKHH.sol\":1640:1646  _sushi */\n  dup1\n    /* \"PolarAI/Masterchef_HKHH.sol\":1632:1637  sushi */\n  0x00\n  dup1\n    /* \"PolarAI/Masterchef_HKHH.sol\":1632:1646  sushi = _sushi */\n  0x0100\n  exp\n  dup2\n  sload\n  dup2\n  0xffffffffffffffffffffffffffffffffffffffff\n  mul\n  not\n  and\n  swap1\n  dup4\n  0xffffffffffffffffffffffffffffffffffffffff\n  and\n  mul\n  or\n  swap1\n  sstore\n  pop\n    /* \"PolarAI/Masterchef_HKHH.sol\":1570:1653  constructor(... */\n  pop\n    /* \"PolarAI/Masterchef_HKHH.sol\":83:5573  contract MasterChef {... */\n  dataSize(sub_0)\n  dup1\n  dataOffset(sub_0)\n  0x00\n  codecopy\n  0x00\n  return\nstop\n\nsub_0: assembly {\n        /* \"PolarAI/Masterchef_HKHH.sol\":83:5573  contract MasterChef {... */\n      mstore(0x40, 0x80)\n      callvalue\n      dup1\n      iszero\n      tag_1\n      jumpi\n      0x00\n      dup1\n      revert\n    tag_1:\n      pop\n      jumpi(tag_2, lt(calldatasize, 0x04))\n      shr(0xe0, calldataload(0x00))\n      dup1\n      0x17caf6f1\n      gt\n      tag_12\n      jumpi\n      dup1\n      0x17caf6f1\n      eq\n      tag_7\n      jumpi\n      dup1\n      0x441a3e70\n      eq\n      tag_8\n      jumpi\n      dup1\n      0x48cd4cb1\n      eq\n      tag_9\n      jumpi\n      dup1\n      0x93f1a40b\n      eq\n      tag_10\n      jumpi\n      dup1\n      0xe2bbb158\n      eq\n      tag_11\n      jumpi\n      jump(tag_2)\n    tag_12:\n      dup1\n      0x081e3eda\n      eq\n      tag_3\n      jumpi\n      dup1\n      0x0a087903\n      eq\n      tag_4\n      jumpi\n      dup1\n      0x0a3b0a4f\n      eq\n      tag_5\n      jumpi\n      dup1\n      0x1526fe27\n      eq\n      tag_6\n      jumpi\n    tag_2:\n      0x00\n      dup1\n      revert\n        /* \"PolarAI/Masterchef_HKHH.sol\":1659:1752  function poolLength() external view returns (uint256) {... */\n    tag_3:\n      tag_13\n      tag_14\n      jump\t// in\n    tag_13:\n      mload(0x40)\n      dup1\n      dup3\n      dup2\n      mstore\n      0x20\n      add\n      swap2\n      pop\n      pop\n      mload(0x40)\n      dup1\n      swap2\n      sub\n      swap1\n      return\n        /* \"PolarAI/Masterchef_HKHH.sol\":812:835  SushiToken public sushi */\n    tag_4:\n      tag_15\n      tag_16\n      jump\t// in\n    tag_15:\n      mload(0x40)\n      dup1\n      dup3\n      0xffffffffffffffffffffffffffffffffffffffff\n      and\n      dup2\n      mstore\n      0x20\n      add\n      swap2\n      pop\n      pop\n      mload(0x40)\n      dup1\n      swap2\n      sub\n      swap1\n      return\n        /* \"PolarAI/Masterchef_HKHH.sol\":1996:2740  function add(IERC20 _lpToken) public {... */\n    tag_5:\n      tag_17\n      0x04\n      dup1\n      calldatasize\n      sub\n      0x20\n      dup2\n      lt\n      iszero\n      tag_18\n      jumpi\n      0x00\n      dup1\n      revert\n    tag_18:\n      dup2\n      add\n      swap1\n      dup1\n      dup1\n      calldataload\n      0xffffffffffffffffffffffffffffffffffffffff\n      and\n      swap1\n      0x20\n      add\n      swap1\n      swap3\n      swap2\n      swap1\n      pop\n      pop\n      pop\n      tag_19\n      jump\t// in\n    tag_17:\n      stop\n        /* \"PolarAI/Masterchef_HKHH.sol\":992:1018  PoolInfo[] public poolInfo */\n    tag_6:\n      tag_20\n      0x04\n      dup1\n      calldatasize\n      sub\n      0x20\n      dup2\n      lt\n      iszero\n      tag_21\n      jumpi\n      0x00\n      dup1\n      revert\n    tag_21:\n      dup2\n      add\n      swap1\n      dup1\n      dup1\n      calldataload\n      swap1\n      0x20\n      add\n      swap1\n      swap3\n      swap2\n      swap1\n      pop\n      pop\n      pop\n      tag_22\n      jump\t// in\n    tag_20:\n      mload(0x40)\n      dup1\n      dup6\n      0xffffffffffffffffffffffffffffffffffffffff\n      and\n      dup2\n      mstore\n      0x20\n      add\n      dup5\n      dup2\n      mstore\n      0x20\n      add\n      dup4\n      dup2\n      mstore\n      0x20\n      add\n      dup3\n      dup2\n      mstore\n      0x20\n      add\n      swap5\n      pop\n      pop\n      pop\n      pop\n      pop\n      mload(0x40)\n      dup1\n      swap2\n      sub\n      swap1\n      return\n        /* \"PolarAI/Masterchef_HKHH.sol\":1262:1296  uint256 public totalAllocPoint = 0 */\n    tag_7:\n      tag_23\n      tag_24\n      jump\t// in\n    tag_23:\n      mload(0x40)\n      dup1\n      dup3\n      dup2\n      mstore\n      0x20\n      add\n      swap2\n      pop\n      pop\n      mload(0x40)\n      dup1\n      swap2\n      sub\n      swap1\n      return\n        /* \"PolarAI/Masterchef_HKHH.sol\":4931:5571  function withdraw(uint256 _pid, uint256 _amount) public {... */\n    tag_8:\n      tag_25\n      0x04\n      dup1\n      calldatasize\n      sub\n      0x40\n      dup2\n      lt\n      iszero\n      tag_26\n      jumpi\n      0x00\n      dup1\n      revert\n    tag_26:\n      dup2\n      add\n      swap1\n      dup1\n      dup1\n      calldataload\n      swap1\n      0x20\n      add\n      swap1\n      swap3\n      swap2\n      swap1\n      dup1\n      calldataload\n      swap1\n      0x20\n      add\n      swap1\n      swap3\n      swap2\n      swap1\n      pop\n      pop\n      pop\n      tag_27\n      jump\t// in\n    tag_25:\n      stop\n        /* \"PolarAI/Masterchef_HKHH.sol\":1376:1405  uint256 public startBlock = 0 */\n    tag_9:\n      tag_28\n      tag_29\n      jump\t// in\n    tag_28:\n      mload(0x40)\n      dup1\n      dup3\n      dup2\n      mstore\n      0x20\n      add\n      swap2\n      pop\n      pop\n      mload(0x40)\n      dup1\n      swap2\n      sub\n      swap1\n      return\n        /* \"PolarAI/Masterchef_HKHH.sol\":1073:1139  mapping (uint256 => mapping (address => UserInfo)) public userInfo */\n    tag_10:\n      tag_30\n      0x04\n      dup1\n      calldatasize\n      sub\n      0x40\n      dup2\n      lt\n      iszero\n      tag_31\n      jumpi\n      0x00\n      dup1\n      revert\n    tag_31:\n      dup2\n      add\n      swap1\n      dup1\n      dup1\n      calldataload\n      swap1\n      0x20\n      add\n      swap1\n      swap3\n      swap2\n      swap1\n      dup1\n      calldataload\n      0xffffffffffffffffffffffffffffffffffffffff\n      and\n      swap1\n      0x20\n      add\n      swap1\n      swap3\n      swap2\n      swap1\n      pop\n      pop\n      pop\n      tag_32\n      jump\t// in\n    tag_30:\n      mload(0x40)\n      dup1\n      dup4\n      dup2\n      mstore\n      0x20\n      add\n      dup3\n      dup2\n      mstore\n      0x20\n      add\n      swap3\n      pop\n      pop\n      pop\n      mload(0x40)\n      dup1\n      swap2\n      sub\n      swap1\n      return\n        /* \"PolarAI/Masterchef_HKHH.sol\":4089:4882  function deposit(uint256 _pid, uint256 _amount) public {... */\n    tag_11:\n      tag_33\n      0x04\n      dup1\n      calldatasize\n      sub\n      0x40\n      dup2\n      lt\n      iszero\n      tag_34\n      jumpi\n      0x00\n      dup1\n      revert\n    tag_34:\n      dup2\n      add\n      swap1\n      dup1\n      dup1\n      calldataload\n      swap1\n      0x20\n      add\n      swap1\n      swap3\n      swap2\n      swap1\n      dup1\n      calldataload\n      swap1\n      0x20\n      add\n      swap1\n      swap3\n      swap2\n      swap1\n      pop\n      pop\n      pop\n      tag_35\n      jump\t// in\n    tag_33:\n      stop\n        /* \"PolarAI/Masterchef_HKHH.sol\":1659:1752  function poolLength() external view returns (uint256) {... */\n    tag_14:\n        /* \"PolarAI/Masterchef_HKHH.sol\":1704:1711  uint256 */\n      0x00\n        /* \"PolarAI/Masterchef_HKHH.sol\":1730:1738  poolInfo */\n      0x01\n        /* \"PolarAI/Masterchef_HKHH.sol\":1730:1745  poolInfo.length */\n      dup1\n      sload\n      swap1\n      pop\n        /* \"PolarAI/Masterchef_HKHH.sol\":1723:1745  return poolInfo.length */\n      swap1\n      pop\n        /* \"PolarAI/Masterchef_HKHH.sol\":1659:1752  function poolLength() external view returns (uint256) {... */\n      swap1\n      jump\t// out\n        /* \"PolarAI/Masterchef_HKHH.sol\":812:835  SushiToken public sushi */\n    tag_16:\n      0x00\n      dup1\n      sload\n      swap1\n      0x0100\n      exp\n      swap1\n      div\n      0xffffffffffffffffffffffffffffffffffffffff\n      and\n      dup2\n      jump\t// out\n        /* \"PolarAI/Masterchef_HKHH.sol\":1996:2740  function add(IERC20 _lpToken) public {... */\n    tag_19:\n        /* \"PolarAI/Masterchef_HKHH.sol\":2043:2066  uint256 lastRewardBlock */\n      0x00\n        /* \"PolarAI/Masterchef_HKHH.sol\":2084:2094  startBlock */\n      sload(0x04)\n        /* \"PolarAI/Masterchef_HKHH.sol\":2069:2081  block.number */\n      number\n        /* \"PolarAI/Masterchef_HKHH.sol\":2069:2094  block.number > startBlock */\n      gt\n        /* \"PolarAI/Masterchef_HKHH.sol\":2069:2122  block.number > startBlock ? block.number : startBlock */\n      tag_38\n      jumpi\n        /* \"PolarAI/Masterchef_HKHH.sol\":2112:2122  startBlock */\n      sload(0x04)\n        /* \"PolarAI/Masterchef_HKHH.sol\":2069:2122  block.number > startBlock ? block.number : startBlock */\n      jump(tag_39)\n    tag_38:\n        /* \"PolarAI/Masterchef_HKHH.sol\":2097:2109  block.number */\n      number\n        /* \"PolarAI/Masterchef_HKHH.sol\":2069:2122  block.number > startBlock ? block.number : startBlock */\n    tag_39:\n        /* \"PolarAI/Masterchef_HKHH.sol\":2043:2122  uint256 lastRewardBlock = block.number > startBlock ? block.number : startBlock */\n      swap1\n      pop\n        /* \"PolarAI/Masterchef_HKHH.sol\":2150:2174  totalAllocPoint.add(100) */\n      tag_40\n        /* \"PolarAI/Masterchef_HKHH.sol\":2170:2173  100 */\n      0x64\n        /* \"PolarAI/Masterchef_HKHH.sol\":2150:2165  totalAllocPoint */\n      sload(0x03)\n        /* \"PolarAI/Masterchef_HKHH.sol\":2150:2169  totalAllocPoint.add */\n      tag_41\n      swap1\n        /* \"PolarAI/Masterchef_HKHH.sol\":2150:2174  totalAllocPoint.add(100) */\n      swap2\n      swap1\n      0xffffffff\n      and\n      jump\t// in\n    tag_40:\n        /* \"PolarAI/Masterchef_HKHH.sol\":2132:2147  totalAllocPoint */\n      0x03\n        /* \"PolarAI/Masterchef_HKHH.sol\":2132:2174  totalAllocPoint = totalAllocPoint.add(100) */\n      dup2\n      swap1\n      sstore\n      pop\n        /* \"PolarAI/Masterchef_HKHH.sol\":2184:2192  poolInfo */\n      0x01\n        /* \"PolarAI/Masterchef_HKHH.sol\":2198:2732  PoolInfo({... */\n      mload(0x40)\n      dup1\n      0x80\n      add\n      0x40\n      mstore\n      dup1\n        /* \"PolarAI/Masterchef_HKHH.sol\":2230:2238  _lpToken */\n      dup5\n        /* \"PolarAI/Masterchef_HKHH.sol\":2198:2732  PoolInfo({... */\n      0xffffffffffffffffffffffffffffffffffffffff\n      and\n      dup2\n      mstore\n      0x20\n      add\n        /* \"PolarAI/Masterchef_HKHH.sol\":2310:2313  100 */\n      0x64\n        /* \"PolarAI/Masterchef_HKHH.sol\":2198:2732  PoolInfo({... */\n      dup2\n      mstore\n      0x20\n      add\n        /* \"PolarAI/Masterchef_HKHH.sol\":2390:2405  lastRewardBlock */\n      dup4\n        /* \"PolarAI/Masterchef_HKHH.sol\":2198:2732  PoolInfo({... */\n      dup2\n      mstore\n      0x20\n      add\n        /* \"PolarAI/Masterchef_HKHH.sol\":2720:2721  0 */\n      0x00\n        /* \"PolarAI/Masterchef_HKHH.sol\":2198:2732  PoolInfo({... */\n      dup2\n      mstore\n      pop\n        /* \"PolarAI/Masterchef_HKHH.sol\":2184:2733  poolInfo.push(PoolInfo({... */\n      swap1\n      dup1\n      0x01\n      dup2\n      sload\n      add\n      dup1\n      dup3\n      sstore\n      dup1\n      swap2\n      pop\n      pop\n      0x01\n      swap1\n      sub\n      swap1\n      0x00\n      mstore\n      keccak256(0x00, 0x20)\n      swap1\n      0x04\n      mul\n      add\n      0x00\n      swap1\n      swap2\n      swap1\n      swap2\n      swap1\n      swap2\n      pop\n      0x00\n      dup3\n      add\n      mload\n      dup2\n      0x00\n      add\n      exp(0x0100, 0x00)\n      dup2\n      sload\n      dup2\n      0xffffffffffffffffffffffffffffffffffffffff\n      mul\n      not\n      and\n      swap1\n      dup4\n      0xffffffffffffffffffffffffffffffffffffffff\n      and\n      mul\n      or\n      swap1\n      sstore\n      pop\n      0x20\n      dup3\n      add\n      mload\n      dup2\n      0x01\n      add\n      sstore\n      0x40\n      dup3\n      add\n      mload\n      dup2\n      0x02\n      add\n      sstore\n      0x60\n      dup3\n      add\n      mload\n      dup2\n      0x03\n      add\n      sstore\n      pop\n      pop\n        /* \"PolarAI/Masterchef_HKHH.sol\":1996:2740  function add(IERC20 _lpToken) public {... */\n      pop\n      pop\n      jump\t// out\n        /* \"PolarAI/Masterchef_HKHH.sol\":992:1018  PoolInfo[] public poolInfo */\n    tag_22:\n      0x01\n      dup2\n      dup2\n      sload\n      dup2\n      lt\n      tag_43\n      jumpi\n      invalid\n    tag_43:\n      swap1\n      0x00\n      mstore\n      keccak256(0x00, 0x20)\n      swap1\n      0x04\n      mul\n      add\n      0x00\n      swap2\n      pop\n      swap1\n      pop\n      dup1\n      0x00\n      add\n      0x00\n      swap1\n      sload\n      swap1\n      0x0100\n      exp\n      swap1\n      div\n      0xffffffffffffffffffffffffffffffffffffffff\n      and\n      swap1\n      dup1\n      0x01\n      add\n      sload\n      swap1\n      dup1\n      0x02\n      add\n      sload\n      swap1\n      dup1\n      0x03\n      add\n      sload\n      swap1\n      pop\n      dup5\n      jump\t// out\n        /* \"PolarAI/Masterchef_HKHH.sol\":1262:1296  uint256 public totalAllocPoint = 0 */\n    tag_24:\n      sload(0x03)\n      dup2\n      jump\t// out\n        /* \"PolarAI/Masterchef_HKHH.sol\":4931:5571  function withdraw(uint256 _pid, uint256 _amount) public {... */\n    tag_27:\n        /* \"PolarAI/Masterchef_HKHH.sol\":4997:5018  PoolInfo storage pool */\n      0x00\n        /* \"PolarAI/Masterchef_HKHH.sol\":5021:5029  poolInfo */\n      0x01\n        /* \"PolarAI/Masterchef_HKHH.sol\":5030:5034  _pid */\n      dup4\n        /* \"PolarAI/Masterchef_HKHH.sol\":5021:5035  poolInfo[_pid] */\n      dup2\n      sload\n      dup2\n      lt\n      tag_46\n      jumpi\n      invalid\n    tag_46:\n      swap1\n      0x00\n      mstore\n      keccak256(0x00, 0x20)\n      swap1\n      0x04\n      mul\n      add\n        /* \"PolarAI/Masterchef_HKHH.sol\":4997:5035  PoolInfo storage pool = poolInfo[_pid] */\n      swap1\n      pop\n        /* \"PolarAI/Masterchef_HKHH.sol\":5045:5066  UserInfo storage user */\n      0x00\n        /* \"PolarAI/Masterchef_HKHH.sol\":5069:5077  userInfo */\n      0x02\n        /* \"PolarAI/Masterchef_HKHH.sol\":5069:5083  userInfo[_pid] */\n      0x00\n        /* \"PolarAI/Masterchef_HKHH.sol\":5078:5082  _pid */\n      dup6\n        /* \"PolarAI/Masterchef_HKHH.sol\":5069:5083  userInfo[_pid] */\n      dup2\n      mstore\n      0x20\n      add\n      swap1\n      dup2\n      mstore\n      0x20\n      add\n      0x00\n      keccak256\n        /* \"PolarAI/Masterchef_HKHH.sol\":5069:5095  userInfo[_pid][msg.sender] */\n      0x00\n        /* \"PolarAI/Masterchef_HKHH.sol\":5084:5094  msg.sender */\n      caller\n        /* \"PolarAI/Masterchef_HKHH.sol\":5069:5095  userInfo[_pid][msg.sender] */\n      0xffffffffffffffffffffffffffffffffffffffff\n      and\n      0xffffffffffffffffffffffffffffffffffffffff\n      and\n      dup2\n      mstore\n      0x20\n      add\n      swap1\n      dup2\n      mstore\n      0x20\n      add\n      0x00\n      keccak256\n        /* \"PolarAI/Masterchef_HKHH.sol\":5045:5095  UserInfo storage user = userInfo[_pid][msg.sender] */\n      swap1\n      pop\n        /* \"PolarAI/Masterchef_HKHH.sol\":5128:5135  _amount */\n      dup3\n        /* \"PolarAI/Masterchef_HKHH.sol\":5113:5117  user */\n      dup2\n        /* \"PolarAI/Masterchef_HKHH.sol\":5113:5124  user.amount */\n      0x00\n      add\n      sload\n        /* \"PolarAI/Masterchef_HKHH.sol\":5113:5135  user.amount >= _amount */\n      lt\n      iszero\n        /* \"PolarAI/Masterchef_HKHH.sol\":5105:5158  require(user.amount >= _amount, \"withdraw: not good\") */\n      tag_48\n      jumpi\n      mload(0x40)\n      0x08c379a000000000000000000000000000000000000000000000000000000000\n      dup2\n      mstore\n      0x04\n      add\n      dup1\n      dup1\n      0x20\n      add\n      dup3\n      dup2\n      sub\n      dup3\n      mstore\n      0x12\n      dup2\n      mstore\n      0x20\n      add\n      dup1\n      0x77697468647261773a206e6f7420676f6f640000000000000000000000000000\n      dup2\n      mstore\n      pop\n      0x20\n      add\n      swap2\n      pop\n      pop\n      mload(0x40)\n      dup1\n      swap2\n      sub\n      swap1\n      revert\n    tag_48:\n        /* \"PolarAI/Masterchef_HKHH.sol\":5168:5184  updatePool(_pid) */\n      tag_49\n        /* \"PolarAI/Masterchef_HKHH.sol\":5179:5183  _pid */\n      dup5\n        /* \"PolarAI/Masterchef_HKHH.sol\":5168:5178  updatePool */\n      tag_50\n        /* \"PolarAI/Masterchef_HKHH.sol\":5168:5184  updatePool(_pid) */\n      jump\t// in\n    tag_49:\n        /* \"PolarAI/Masterchef_HKHH.sol\":5194:5209  uint256 pending */\n      0x00\n        /* \"PolarAI/Masterchef_HKHH.sol\":5212:5281  user.amount.mul(pool.accSushiPerShare).div(1e12).sub(user.rewardDebt) */\n      tag_51\n        /* \"PolarAI/Masterchef_HKHH.sol\":5265:5269  user */\n      dup3\n        /* \"PolarAI/Masterchef_HKHH.sol\":5265:5280  user.rewardDebt */\n      0x01\n      add\n      sload\n        /* \"PolarAI/Masterchef_HKHH.sol\":5212:5260  user.amount.mul(pool.accSushiPerShare).div(1e12) */\n      tag_52\n        /* \"PolarAI/Masterchef_HKHH.sol\":5255:5259  1e12 */\n      0xe8d4a51000\n        /* \"PolarAI/Masterchef_HKHH.sol\":5212:5250  user.amount.mul(pool.accSushiPerShare) */\n      tag_53\n        /* \"PolarAI/Masterchef_HKHH.sol\":5228:5232  pool */\n      dup8\n        /* \"PolarAI/Masterchef_HKHH.sol\":5228:5249  pool.accSushiPerShare */\n      0x03\n      add\n      sload\n        /* \"PolarAI/Masterchef_HKHH.sol\":5212:5216  user */\n      dup8\n        /* \"PolarAI/Masterchef_HKHH.sol\":5212:5223  user.amount */\n      0x00\n      add\n      sload\n        /* \"PolarAI/Masterchef_HKHH.sol\":5212:5227  user.amount.mul */\n      tag_54\n      swap1\n        /* \"PolarAI/Masterchef_HKHH.sol\":5212:5250  user.amount.mul(pool.accSushiPerShare) */\n      swap2\n      swap1\n      0xffffffff\n      and\n      jump\t// in\n    tag_53:\n        /* \"PolarAI/Masterchef_HKHH.sol\":5212:5254  user.amount.mul(pool.accSushiPerShare).div */\n      tag_55\n      swap1\n        /* \"PolarAI/Masterchef_HKHH.sol\":5212:5260  user.amount.mul(pool.accSushiPerShare).div(1e12) */\n      swap2\n      swap1\n      0xffffffff\n      and\n      jump\t// in\n    tag_52:\n        /* \"PolarAI/Masterchef_HKHH.sol\":5212:5264  user.amount.mul(pool.accSushiPerShare).div(1e12).sub */\n      tag_56\n      swap1\n        /* \"PolarAI/Masterchef_HKHH.sol\":5212:5281  user.amount.mul(pool.accSushiPerShare).div(1e12).sub(user.rewardDebt) */\n      swap2\n      swap1\n      0xffffffff\n      and\n      jump\t// in\n    tag_51:\n        /* \"PolarAI/Masterchef_HKHH.sol\":5194:5281  uint256 pending = user.amount.mul(pool.accSushiPerShare).div(1e12).sub(user.rewardDebt) */\n      swap1\n      pop\n        /* \"PolarAI/Masterchef_HKHH.sol\":5291:5296  sushi */\n      0x00\n      dup1\n      sload\n      swap1\n      0x0100\n      exp\n      swap1\n      div\n      0xffffffffffffffffffffffffffffffffffffffff\n      and\n        /* \"PolarAI/Masterchef_HKHH.sol\":5291:5305  sushi.transfer */\n      0xffffffffffffffffffffffffffffffffffffffff\n      and\n      0xa9059cbb\n        /* \"PolarAI/Masterchef_HKHH.sol\":5306:5316  msg.sender */\n      caller\n        /* \"PolarAI/Masterchef_HKHH.sol\":5317:5324  pending */\n      dup4\n        /* \"PolarAI/Masterchef_HKHH.sol\":5291:5325  sushi.transfer(msg.sender,pending) */\n      mload(0x40)\n      dup4\n      0xffffffff\n      and\n      0xe0\n      shl\n      dup2\n      mstore\n      0x04\n      add\n      dup1\n      dup4\n      0xffffffffffffffffffffffffffffffffffffffff\n      and\n      dup2\n      mstore\n      0x20\n      add\n      dup3\n      dup2\n      mstore\n      0x20\n      add\n      swap3\n      pop\n      pop\n      pop\n      0x20\n      mload(0x40)\n      dup1\n      dup4\n      sub\n      dup2\n      0x00\n      dup8\n      dup1\n      extcodesize\n      iszero\n      dup1\n      iszero\n      tag_57\n      jumpi\n      0x00\n      dup1\n      revert\n    tag_57:\n      pop\n      gas\n      call\n      iszero\n      dup1\n      iszero\n      tag_59\n      jumpi\n      returndatasize\n      0x00\n      dup1\n      returndatacopy\n      revert(0x00, returndatasize)\n    tag_59:\n      pop\n      pop\n      pop\n      pop\n      mload(0x40)\n      returndatasize\n      0x20\n      dup2\n      lt\n      iszero\n      tag_60\n      jumpi\n      0x00\n      dup1\n      revert\n    tag_60:\n      dup2\n      add\n      swap1\n      dup1\n      dup1\n      mload\n      swap1\n      0x20\n      add\n      swap1\n      swap3\n      swap2\n      swap1\n      pop\n      pop\n      pop\n      pop\n        /* \"PolarAI/Masterchef_HKHH.sol\":5349:5373  user.amount.sub(_amount) */\n      tag_61\n        /* \"PolarAI/Masterchef_HKHH.sol\":5365:5372  _amount */\n      dup5\n        /* \"PolarAI/Masterchef_HKHH.sol\":5349:5353  user */\n      dup4\n        /* \"PolarAI/Masterchef_HKHH.sol\":5349:5360  user.amount */\n      0x00\n      add\n      sload\n        /* \"PolarAI/Masterchef_HKHH.sol\":5349:5364  user.amount.sub */\n      tag_56\n      swap1\n        /* \"PolarAI/Masterchef_HKHH.sol\":5349:5373  user.amount.sub(_amount) */\n      swap2\n      swap1\n      0xffffffff\n      and\n      jump\t// in\n    tag_61:\n        /* \"PolarAI/Masterchef_HKHH.sol\":5335:5339  user */\n      dup3\n        /* \"PolarAI/Masterchef_HKHH.sol\":5335:5346  user.amount */\n      0x00\n      add\n        /* \"PolarAI/Masterchef_HKHH.sol\":5335:5373  user.amount = user.amount.sub(_amount) */\n      dup2\n      swap1\n      sstore\n      pop\n        /* \"PolarAI/Masterchef_HKHH.sol\":5401:5449  user.amount.mul(pool.accSushiPerShare).div(1e12) */\n      tag_62\n        /* \"PolarAI/Masterchef_HKHH.sol\":5444:5448  1e12 */\n      0xe8d4a51000\n        /* \"PolarAI/Masterchef_HKHH.sol\":5401:5439  user.amount.mul(pool.accSushiPerShare) */\n      tag_63\n        /* \"PolarAI/Masterchef_HKHH.sol\":5417:5421  pool */\n      dup6\n        /* \"PolarAI/Masterchef_HKHH.sol\":5417:5438  pool.accSushiPerShare */\n      0x03\n      add\n      sload\n        /* \"PolarAI/Masterchef_HKHH.sol\":5401:5405  user */\n      dup6\n        /* \"PolarAI/Masterchef_HKHH.sol\":5401:5412  user.amount */\n      0x00\n      add\n      sload\n        /* \"PolarAI/Masterchef_HKHH.sol\":5401:5416  user.amount.mul */\n      tag_54\n      swap1\n        /* \"PolarAI/Masterchef_HKHH.sol\":5401:5439  user.amount.mul(pool.accSushiPerShare) */\n      swap2\n      swap1\n      0xffffffff\n      and\n      jump\t// in\n    tag_63:\n        /* \"PolarAI/Masterchef_HKHH.sol\":5401:5443  user.amount.mul(pool.accSushiPerShare).div */\n      tag_55\n      swap1\n        /* \"PolarAI/Masterchef_HKHH.sol\":5401:5449  user.amount.mul(pool.accSushiPerShare).div(1e12) */\n      swap2\n      swap1\n      0xffffffff\n      and\n      jump\t// in\n    tag_62:\n        /* \"PolarAI/Masterchef_HKHH.sol\":5383:5387  user */\n      dup3\n        /* \"PolarAI/Masterchef_HKHH.sol\":5383:5398  user.rewardDebt */\n      0x01\n      add\n        /* \"PolarAI/Masterchef_HKHH.sol\":5383:5449  user.rewardDebt = user.amount.mul(pool.accSushiPerShare).div(1e12) */\n      dup2\n      swap1\n      sstore\n      pop\n        /* \"PolarAI/Masterchef_HKHH.sol\":5459:5514  pool.lpToken.safeTransfer(address(msg.sender), _amount) */\n      tag_64\n        /* \"PolarAI/Masterchef_HKHH.sol\":5493:5503  msg.sender */\n      caller\n        /* \"PolarAI/Masterchef_HKHH.sol\":5506:5513  _amount */\n      dup6\n        /* \"PolarAI/Masterchef_HKHH.sol\":5459:5463  pool */\n      dup6\n        /* \"PolarAI/Masterchef_HKHH.sol\":5459:5471  pool.lpToken */\n      0x00\n      add\n      0x00\n      swap1\n      sload\n      swap1\n      0x0100\n      exp\n      swap1\n      div\n      0xffffffffffffffffffffffffffffffffffffffff\n      and\n        /* \"PolarAI/Masterchef_HKHH.sol\":5459:5484  pool.lpToken.safeTransfer */\n      0xffffffffffffffffffffffffffffffffffffffff\n      and\n      tag_65\n      swap1\n        /* \"PolarAI/Masterchef_HKHH.sol\":5459:5514  pool.lpToken.safeTransfer(address(msg.sender), _amount) */\n      swap3\n      swap2\n      swap1\n      0xffffffff\n      and\n      jump\t// in\n    tag_64:\n        /* \"PolarAI/Masterchef_HKHH.sol\":5550:5554  _pid */\n      dup5\n        /* \"PolarAI/Masterchef_HKHH.sol\":5538:5548  msg.sender */\n      caller\n        /* \"PolarAI/Masterchef_HKHH.sol\":5529:5564  Withdraw(msg.sender, _pid, _amount) */\n      0xffffffffffffffffffffffffffffffffffffffff\n      and\n      0xf279e6a1f5e320cca91135676d9cb6e44ca8a08c0b88342bcdb1144f6511b568\n        /* \"PolarAI/Masterchef_HKHH.sol\":5556:5563  _amount */\n      dup7\n        /* \"PolarAI/Masterchef_HKHH.sol\":5529:5564  Withdraw(msg.sender, _pid, _amount) */\n      mload(0x40)\n      dup1\n      dup3\n      dup2\n      mstore\n      0x20\n      add\n      swap2\n      pop\n      pop\n      mload(0x40)\n      dup1\n      swap2\n      sub\n      swap1\n      log3\n        /* \"PolarAI/Masterchef_HKHH.sol\":4931:5571  function withdraw(uint256 _pid, uint256 _amount) public {... */\n      pop\n      pop\n      pop\n      pop\n      pop\n      jump\t// out\n        /* \"PolarAI/Masterchef_HKHH.sol\":1376:1405  uint256 public startBlock = 0 */\n    tag_29:\n      sload(0x04)\n      dup2\n      jump\t// out\n        /* \"PolarAI/Masterchef_HKHH.sol\":1073:1139  mapping (uint256 => mapping (address => UserInfo)) public userInfo */\n    tag_32:\n      mstore(0x20, 0x02)\n      dup2\n      0x00\n      mstore\n      mstore(0x20, keccak256(0x00, 0x40))\n      dup1\n      0x00\n      mstore\n      keccak256(0x00, 0x40)\n      0x00\n      swap2\n      pop\n      swap2\n      pop\n      pop\n      dup1\n      0x00\n      add\n      sload\n      swap1\n      dup1\n      0x01\n      add\n      sload\n      swap1\n      pop\n      dup3\n      jump\t// out\n        /* \"PolarAI/Masterchef_HKHH.sol\":4089:4882  function deposit(uint256 _pid, uint256 _amount) public {... */\n    tag_35:\n        /* \"PolarAI/Masterchef_HKHH.sol\":4154:4175  PoolInfo storage pool */\n      0x00\n        /* \"PolarAI/Masterchef_HKHH.sol\":4178:4186  poolInfo */\n      0x01\n        /* \"PolarAI/Masterchef_HKHH.sol\":4187:4191  _pid */\n      dup4\n        /* \"PolarAI/Masterchef_HKHH.sol\":4178:4192  poolInfo[_pid] */\n      dup2\n      sload\n      dup2\n      lt\n      tag_67\n      jumpi\n      invalid\n    tag_67:\n      swap1\n      0x00\n      mstore\n      keccak256(0x00, 0x20)\n      swap1\n      0x04\n      mul\n      add\n        /* \"PolarAI/Masterchef_HKHH.sol\":4154:4192  PoolInfo storage pool = poolInfo[_pid] */\n      swap1\n      pop\n        /* \"PolarAI/Masterchef_HKHH.sol\":4202:4223  UserInfo storage user */\n      0x00\n        /* \"PolarAI/Masterchef_HKHH.sol\":4226:4234  userInfo */\n      0x02\n        /* \"PolarAI/Masterchef_HKHH.sol\":4226:4240  userInfo[_pid] */\n      0x00\n        /* \"PolarAI/Masterchef_HKHH.sol\":4235:4239  _pid */\n      dup6\n        /* \"PolarAI/Masterchef_HKHH.sol\":4226:4240  userInfo[_pid] */\n      dup2\n      mstore\n      0x20\n      add\n      swap1\n      dup2\n      mstore\n      0x20\n      add\n      0x00\n      keccak256\n        /* \"PolarAI/Masterchef_HKHH.sol\":4226:4252  userInfo[_pid][msg.sender] */\n      0x00\n        /* \"PolarAI/Masterchef_HKHH.sol\":4241:4251  msg.sender */\n      caller\n        /* \"PolarAI/Masterchef_HKHH.sol\":4226:4252  userInfo[_pid][msg.sender] */\n      0xffffffffffffffffffffffffffffffffffffffff\n      and\n      0xffffffffffffffffffffffffffffffffffffffff\n      and\n      dup2\n      mstore\n      0x20\n      add\n      swap1\n      dup2\n      mstore\n      0x20\n      add\n      0x00\n      keccak256\n        /* \"PolarAI/Masterchef_HKHH.sol\":4202:4252  UserInfo storage user = userInfo[_pid][msg.sender] */\n      swap1\n      pop\n        /* \"PolarAI/Masterchef_HKHH.sol\":4262:4278  updatePool(_pid) */\n      tag_69\n        /* \"PolarAI/Masterchef_HKHH.sol\":4273:4277  _pid */\n      dup5\n        /* \"PolarAI/Masterchef_HKHH.sol\":4262:4272  updatePool */\n      tag_50\n        /* \"PolarAI/Masterchef_HKHH.sol\":4262:4278  updatePool(_pid) */\n      jump\t// in\n    tag_69:\n        /* \"PolarAI/Masterchef_HKHH.sol\":4357:4358  0 */\n      0x00\n        /* \"PolarAI/Masterchef_HKHH.sol\":4343:4347  user */\n      dup2\n        /* \"PolarAI/Masterchef_HKHH.sol\":4343:4354  user.amount */\n      0x00\n      add\n      sload\n        /* \"PolarAI/Masterchef_HKHH.sol\":4343:4358  user.amount > 0 */\n      gt\n        /* \"PolarAI/Masterchef_HKHH.sol\":4339:4521  if (user.amount > 0) {... */\n      iszero\n      tag_70\n      jumpi\n        /* \"PolarAI/Masterchef_HKHH.sol\":4374:4389  uint256 pending */\n      0x00\n        /* \"PolarAI/Masterchef_HKHH.sol\":4392:4461  user.amount.mul(pool.accSushiPerShare).div(1e12).sub(user.rewardDebt) */\n      tag_71\n        /* \"PolarAI/Masterchef_HKHH.sol\":4445:4449  user */\n      dup3\n        /* \"PolarAI/Masterchef_HKHH.sol\":4445:4460  user.rewardDebt */\n      0x01\n      add\n      sload\n        /* \"PolarAI/Masterchef_HKHH.sol\":4392:4440  user.amount.mul(pool.accSushiPerShare).div(1e12) */\n      tag_72\n        /* \"PolarAI/Masterchef_HKHH.sol\":4435:4439  1e12 */\n      0xe8d4a51000\n        /* \"PolarAI/Masterchef_HKHH.sol\":4392:4430  user.amount.mul(pool.accSushiPerShare) */\n      tag_73\n        /* \"PolarAI/Masterchef_HKHH.sol\":4408:4412  pool */\n      dup8\n        /* \"PolarAI/Masterchef_HKHH.sol\":4408:4429  pool.accSushiPerShare */\n      0x03\n      add\n      sload\n        /* \"PolarAI/Masterchef_HKHH.sol\":4392:4396  user */\n      dup8\n        /* \"PolarAI/Masterchef_HKHH.sol\":4392:4403  user.amount */\n      0x00\n      add\n      sload\n        /* \"PolarAI/Masterchef_HKHH.sol\":4392:4407  user.amount.mul */\n      tag_54\n      swap1\n        /* \"PolarAI/Masterchef_HKHH.sol\":4392:4430  user.amount.mul(pool.accSushiPerShare) */\n      swap2\n      swap1\n      0xffffffff\n      and\n      jump\t// in\n    tag_73:\n        /* \"PolarAI/Masterchef_HKHH.sol\":4392:4434  user.amount.mul(pool.accSushiPerShare).div */\n      tag_55\n      swap1\n        /* \"PolarAI/Masterchef_HKHH.sol\":4392:4440  user.amount.mul(pool.accSushiPerShare).div(1e12) */\n      swap2\n      swap1\n      0xffffffff\n      and\n      jump\t// in\n    tag_72:\n        /* \"PolarAI/Masterchef_HKHH.sol\":4392:4444  user.amount.mul(pool.accSushiPerShare).div(1e12).sub */\n      tag_56\n      swap1\n        /* \"PolarAI/Masterchef_HKHH.sol\":4392:4461  user.amount.mul(pool.accSushiPerShare).div(1e12).sub(user.rewardDebt) */\n      swap2\n      swap1\n      0xffffffff\n      and\n      jump\t// in\n    tag_71:\n        /* \"PolarAI/Masterchef_HKHH.sol\":4374:4461  uint256 pending = user.amount.mul(pool.accSushiPerShare).div(1e12).sub(user.rewardDebt) */\n      swap1\n      pop\n        /* \"PolarAI/Masterchef_HKHH.sol\":4475:4480  sushi */\n      0x00\n      dup1\n      sload\n      swap1\n      0x0100\n      exp\n      swap1\n      div\n      0xffffffffffffffffffffffffffffffffffffffff\n      and\n        /* \"PolarAI/Masterchef_HKHH.sol\":4475:4489  sushi.transfer */\n      0xffffffffffffffffffffffffffffffffffffffff\n      and\n      0xa9059cbb\n        /* \"PolarAI/Masterchef_HKHH.sol\":4490:4500  msg.sender */\n      caller\n        /* \"PolarAI/Masterchef_HKHH.sol\":4502:4509  pending */\n      dup4\n        /* \"PolarAI/Masterchef_HKHH.sol\":4475:4510  sushi.transfer(msg.sender, pending) */\n      mload(0x40)\n      dup4\n      0xffffffff\n      and\n      0xe0\n      shl\n      dup2\n      mstore\n      0x04\n      add\n      dup1\n      dup4\n      0xffffffffffffffffffffffffffffffffffffffff\n      and\n      dup2\n      mstore\n      0x20\n      add\n      dup3\n      dup2\n      mstore\n      0x20\n      add\n      swap3\n      pop\n      pop\n      pop\n      0x20\n      mload(0x40)\n      dup1\n      dup4\n      sub\n      dup2\n      0x00\n      dup8\n      dup1\n      extcodesize\n      iszero\n      dup1\n      iszero\n      tag_74\n      jumpi\n      0x00\n      dup1\n      revert\n    tag_74:\n      pop\n      gas\n      call\n      iszero\n      dup1\n      iszero\n      tag_76\n      jumpi\n      returndatasize\n      0x00\n      dup1\n      returndatacopy\n      revert(0x00, returndatasize)\n    tag_76:\n      pop\n      pop\n      pop\n      pop\n      mload(0x40)\n      returndatasize\n      0x20\n      dup2\n      lt\n      iszero\n      tag_77\n      jumpi\n      0x00\n      dup1\n      revert\n    tag_77:\n      dup2\n      add\n      swap1\n      dup1\n      dup1\n      mload\n      swap1\n      0x20\n      add\n      swap1\n      swap3\n      swap2\n      swap1\n      pop\n      pop\n      pop\n      pop\n        /* \"PolarAI/Masterchef_HKHH.sol\":4339:4521  if (user.amount > 0) {... */\n      pop\n    tag_70:\n        /* \"PolarAI/Masterchef_HKHH.sol\":4592:4666  pool.lpToken.safeTransferFrom(address(msg.sender), address(this), _amount) */\n      tag_78\n        /* \"PolarAI/Masterchef_HKHH.sol\":4630:4640  msg.sender */\n      caller\n        /* \"PolarAI/Masterchef_HKHH.sol\":4651:4655  this */\n      address\n        /* \"PolarAI/Masterchef_HKHH.sol\":4658:4665  _amount */\n      dup6\n        /* \"PolarAI/Masterchef_HKHH.sol\":4592:4596  pool */\n      dup6\n        /* \"PolarAI/Masterchef_HKHH.sol\":4592:4604  pool.lpToken */\n      0x00\n      add\n      0x00\n      swap1\n      sload\n      swap1\n      0x0100\n      exp\n      swap1\n      div\n      0xffffffffffffffffffffffffffffffffffffffff\n      and\n        /* \"PolarAI/Masterchef_HKHH.sol\":4592:4621  pool.lpToken.safeTransferFrom */\n      0xffffffffffffffffffffffffffffffffffffffff\n      and\n      tag_79\n      swap1\n        /* \"PolarAI/Masterchef_HKHH.sol\":4592:4666  pool.lpToken.safeTransferFrom(address(msg.sender), address(this), _amount) */\n      swap4\n      swap3\n      swap2\n      swap1\n      0xffffffff\n      and\n      jump\t// in\n    tag_78:\n        /* \"PolarAI/Masterchef_HKHH.sol\":4690:4714  user.amount.add(_amount) */\n      tag_80\n        /* \"PolarAI/Masterchef_HKHH.sol\":4706:4713  _amount */\n      dup4\n        /* \"PolarAI/Masterchef_HKHH.sol\":4690:4694  user */\n      dup3\n        /* \"PolarAI/Masterchef_HKHH.sol\":4690:4701  user.amount */\n      0x00\n      add\n      sload\n        /* \"PolarAI/Masterchef_HKHH.sol\":4690:4705  user.amount.add */\n      tag_41\n      swap1\n        /* \"PolarAI/Masterchef_HKHH.sol\":4690:4714  user.amount.add(_amount) */\n      swap2\n      swap1\n      0xffffffff\n      and\n      jump\t// in\n    tag_80:\n        /* \"PolarAI/Masterchef_HKHH.sol\":4676:4680  user */\n      dup2\n        /* \"PolarAI/Masterchef_HKHH.sol\":4676:4687  user.amount */\n      0x00\n      add\n        /* \"PolarAI/Masterchef_HKHH.sol\":4676:4714  user.amount = user.amount.add(_amount) */\n      dup2\n      swap1\n      sstore\n      pop\n        /* \"PolarAI/Masterchef_HKHH.sol\":4778:4826  user.amount.mul(pool.accSushiPerShare).div(1e12) */\n      tag_81\n        /* \"PolarAI/Masterchef_HKHH.sol\":4821:4825  1e12 */\n      0xe8d4a51000\n        /* \"PolarAI/Masterchef_HKHH.sol\":4778:4816  user.amount.mul(pool.accSushiPerShare) */\n      tag_82\n        /* \"PolarAI/Masterchef_HKHH.sol\":4794:4798  pool */\n      dup5\n        /* \"PolarAI/Masterchef_HKHH.sol\":4794:4815  pool.accSushiPerShare */\n      0x03\n      add\n      sload\n        /* \"PolarAI/Masterchef_HKHH.sol\":4778:4782  user */\n      dup5\n        /* \"PolarAI/Masterchef_HKHH.sol\":4778:4789  user.amount */\n      0x00\n      add\n      sload\n        /* \"PolarAI/Masterchef_HKHH.sol\":4778:4793  user.amount.mul */\n      tag_54\n      swap1\n        /* \"PolarAI/Masterchef_HKHH.sol\":4778:4816  user.amount.mul(pool.accSushiPerShare) */\n      swap2\n      swap1\n      0xffffffff\n      and\n      jump\t// in\n    tag_82:\n        /* \"PolarAI/Masterchef_HKHH.sol\":4778:4820  user.amount.mul(pool.accSushiPerShare).div */\n      tag_55\n      swap1\n        /* \"PolarAI/Masterchef_HKHH.sol\":4778:4826  user.amount.mul(pool.accSushiPerShare).div(1e12) */\n      swap2\n      swap1\n      0xffffffff\n      and\n      jump\t// in\n    tag_81:\n        /* \"PolarAI/Masterchef_HKHH.sol\":4760:4764  user */\n      dup2\n        /* \"PolarAI/Masterchef_HKHH.sol\":4760:4775  user.rewardDebt */\n      0x01\n      add\n        /* \"PolarAI/Masterchef_HKHH.sol\":4760:4826  user.rewardDebt = user.amount.mul(pool.accSushiPerShare).div(1e12) */\n      dup2\n      swap1\n      sstore\n      pop\n        /* \"PolarAI/Masterchef_HKHH.sol\":4861:4865  _pid */\n      dup4\n        /* \"PolarAI/Masterchef_HKHH.sol\":4849:4859  msg.sender */\n      caller\n        /* \"PolarAI/Masterchef_HKHH.sol\":4841:4875  Deposit(msg.sender, _pid, _amount) */\n      0xffffffffffffffffffffffffffffffffffffffff\n      and\n      0x90890809c654f11d6e72a28fa60149770a0d11ec6c92319d6ceb2bb0a4ea1a15\n        /* \"PolarAI/Masterchef_HKHH.sol\":4867:4874  _amount */\n      dup6\n        /* \"PolarAI/Masterchef_HKHH.sol\":4841:4875  Deposit(msg.sender, _pid, _amount) */\n      mload(0x40)\n      dup1\n      dup3\n      dup2\n      mstore\n      0x20\n      add\n      swap2\n      pop\n      pop\n      mload(0x40)\n      dup1\n      swap2\n      sub\n      swap1\n      log3\n        /* \"PolarAI/Masterchef_HKHH.sol\":4089:4882  function deposit(uint256 _pid, uint256 _amount) public {... */\n      pop\n      pop\n      pop\n      pop\n      jump\t// out\n        /* \"PolarAI/interface.sol\":3672:3848  function add(uint256 a, uint256 b) internal pure returns (uint256) {... */\n    tag_41:\n        /* \"PolarAI/interface.sol\":3730:3737  uint256 */\n      0x00\n        /* \"PolarAI/interface.sol\":3749:3758  uint256 c */\n      dup1\n        /* \"PolarAI/interface.sol\":3765:3766  b */\n      dup3\n        /* \"PolarAI/interface.sol\":3761:3762  a */\n      dup5\n        /* \"PolarAI/interface.sol\":3761:3766  a + b */\n      add\n        /* \"PolarAI/interface.sol\":3749:3766  uint256 c = a + b */\n      swap1\n      pop\n        /* \"PolarAI/interface.sol\":3789:3790  a */\n      dup4\n        /* \"PolarAI/interface.sol\":3784:3785  c */\n      dup2\n        /* \"PolarAI/interface.sol\":3784:3790  c >= a */\n      lt\n      iszero\n        /* \"PolarAI/interface.sol\":3776:3822  require(c >= a, \"SafeMath: addition overflow\") */\n      tag_84\n      jumpi\n      mload(0x40)\n      0x08c379a000000000000000000000000000000000000000000000000000000000\n      dup2\n      mstore\n      0x04\n      add\n      dup1\n      dup1\n      0x20\n      add\n      dup3\n      dup2\n      sub\n      dup3\n      mstore\n      0x1b\n      dup2\n      mstore\n      0x20\n      add\n      dup1\n      0x536166654d6174683a206164646974696f6e206f766572666c6f770000000000\n      dup2\n      mstore\n      pop\n      0x20\n      add\n      swap2\n      pop\n      pop\n      mload(0x40)\n      dup1\n      swap2\n      sub\n      swap1\n      revert\n    tag_84:\n        /* \"PolarAI/interface.sol\":3840:3841  c */\n      dup1\n        /* \"PolarAI/interface.sol\":3833:3841  return c */\n      swap2\n      pop\n      pop\n        /* \"PolarAI/interface.sol\":3672:3848  function add(uint256 a, uint256 b) internal pure returns (uint256) {... */\n      swap3\n      swap2\n      pop\n      pop\n      jump\t// out\n        /* \"PolarAI/Masterchef_HKHH.sol\":3044:4022  function updatePool(uint256 _pid)  private{... */\n    tag_50:\n        /* \"PolarAI/Masterchef_HKHH.sol\":3096:3117  PoolInfo storage pool */\n      0x00\n        /* \"PolarAI/Masterchef_HKHH.sol\":3120:3128  poolInfo */\n      0x01\n        /* \"PolarAI/Masterchef_HKHH.sol\":3129:3133  _pid */\n      dup3\n        /* \"PolarAI/Masterchef_HKHH.sol\":3120:3134  poolInfo[_pid] */\n      dup2\n      sload\n      dup2\n      lt\n      tag_86\n      jumpi\n      invalid\n    tag_86:\n      swap1\n      0x00\n      mstore\n      keccak256(0x00, 0x20)\n      swap1\n      0x04\n      mul\n      add\n        /* \"PolarAI/Masterchef_HKHH.sol\":3096:3134  PoolInfo storage pool = poolInfo[_pid] */\n      swap1\n      pop\n        /* \"PolarAI/Masterchef_HKHH.sol\":3164:3168  pool */\n      dup1\n        /* \"PolarAI/Masterchef_HKHH.sol\":3164:3184  pool.lastRewardBlock */\n      0x02\n      add\n      sload\n        /* \"PolarAI/Masterchef_HKHH.sol\":3148:3160  block.number */\n      number\n        /* \"PolarAI/Masterchef_HKHH.sol\":3148:3184  block.number <= pool.lastRewardBlock */\n      gt\n        /* \"PolarAI/Masterchef_HKHH.sol\":3144:3217  if (block.number <= pool.lastRewardBlock) {... */\n      tag_88\n      jumpi\n        /* \"PolarAI/Masterchef_HKHH.sol\":3200:3207  return; */\n      pop\n      jump(tag_85)\n        /* \"PolarAI/Masterchef_HKHH.sol\":3144:3217  if (block.number <= pool.lastRewardBlock) {... */\n    tag_88:\n        /* \"PolarAI/Masterchef_HKHH.sol\":3267:3283  uint256 lpSupply */\n      0x00\n        /* \"PolarAI/Masterchef_HKHH.sol\":3286:3290  pool */\n      dup2\n        /* \"PolarAI/Masterchef_HKHH.sol\":3286:3298  pool.lpToken */\n      0x00\n      add\n      0x00\n      swap1\n      sload\n      swap1\n      0x0100\n      exp\n      swap1\n      div\n      0xffffffffffffffffffffffffffffffffffffffff\n      and\n        /* \"PolarAI/Masterchef_HKHH.sol\":3286:3308  pool.lpToken.balanceOf */\n      0xffffffffffffffffffffffffffffffffffffffff\n      and\n      0x70a08231\n        /* \"PolarAI/Masterchef_HKHH.sol\":3317:3321  this */\n      address\n        /* \"PolarAI/Masterchef_HKHH.sol\":3286:3323  pool.lpToken.balanceOf(address(this)) */\n      mload(0x40)\n      dup3\n      0xffffffff\n      and\n      0xe0\n      shl\n      dup2\n      mstore\n      0x04\n      add\n      dup1\n      dup3\n      0xffffffffffffffffffffffffffffffffffffffff\n      and\n      dup2\n      mstore\n      0x20\n      add\n      swap2\n      pop\n      pop\n      0x20\n      mload(0x40)\n      dup1\n      dup4\n      sub\n      dup2\n      dup7\n      dup1\n      extcodesize\n      iszero\n      dup1\n      iszero\n      tag_89\n      jumpi\n      0x00\n      dup1\n      revert\n    tag_89:\n      pop\n      gas\n      staticcall\n      iszero\n      dup1\n      iszero\n      tag_91\n      jumpi\n      returndatasize\n      0x00\n      dup1\n      returndatacopy\n      revert(0x00, returndatasize)\n    tag_91:\n      pop\n      pop\n      pop\n      pop\n      mload(0x40)\n      returndatasize\n      0x20\n      dup2\n      lt\n      iszero\n      tag_92\n      jumpi\n      0x00\n      dup1\n      revert\n    tag_92:\n      dup2\n      add\n      swap1\n      dup1\n      dup1\n      mload\n      swap1\n      0x20\n      add\n      swap1\n      swap3\n      swap2\n      swap1\n      pop\n      pop\n      pop\n        /* \"PolarAI/Masterchef_HKHH.sol\":3267:3323  uint256 lpSupply = pool.lpToken.balanceOf(address(this)) */\n      swap1\n      pop\n        /* \"PolarAI/Masterchef_HKHH.sol\":3349:3350  0 */\n      0x00\n        /* \"PolarAI/Masterchef_HKHH.sol\":3337:3345  lpSupply */\n      dup2\n        /* \"PolarAI/Masterchef_HKHH.sol\":3337:3350  lpSupply == 0 */\n      eq\n        /* \"PolarAI/Masterchef_HKHH.sol\":3333:3432  if (lpSupply == 0) {... */\n      iszero\n      tag_93\n      jumpi\n        /* \"PolarAI/Masterchef_HKHH.sol\":3389:3401  block.number */\n      number\n        /* \"PolarAI/Masterchef_HKHH.sol\":3366:3370  pool */\n      dup3\n        /* \"PolarAI/Masterchef_HKHH.sol\":3366:3386  pool.lastRewardBlock */\n      0x02\n      add\n        /* \"PolarAI/Masterchef_HKHH.sol\":3366:3401  pool.lastRewardBlock = block.number */\n      dup2\n      swap1\n      sstore\n      pop\n        /* \"PolarAI/Masterchef_HKHH.sol\":3415:3422  return; */\n      pop\n      pop\n      jump(tag_85)\n        /* \"PolarAI/Masterchef_HKHH.sol\":3333:3432  if (lpSupply == 0) {... */\n    tag_93:\n        /* \"PolarAI/Masterchef_HKHH.sol\":3465:3483  uint256 multiplier */\n      0x00\n        /* \"PolarAI/Masterchef_HKHH.sol\":3486:3535  getMultiplier(pool.lastRewardBlock, block.number) */\n      tag_94\n        /* \"PolarAI/Masterchef_HKHH.sol\":3500:3504  pool */\n      dup4\n        /* \"PolarAI/Masterchef_HKHH.sol\":3500:3520  pool.lastRewardBlock */\n      0x02\n      add\n      sload\n        /* \"PolarAI/Masterchef_HKHH.sol\":3522:3534  block.number */\n      number\n        /* \"PolarAI/Masterchef_HKHH.sol\":3486:3499  getMultiplier */\n      tag_95\n        /* \"PolarAI/Masterchef_HKHH.sol\":3486:3535  getMultiplier(pool.lastRewardBlock, block.number) */\n      jump\t// in\n    tag_94:\n        /* \"PolarAI/Masterchef_HKHH.sol\":3465:3535  uint256 multiplier = getMultiplier(pool.lastRewardBlock, block.number) */\n      swap1\n      pop\n        /* \"PolarAI/Masterchef_HKHH.sol\":3658:3677  uint256 sushiReward */\n      0x00\n        /* \"PolarAI/Masterchef_HKHH.sol\":3680:3742  multiplier.mul(1000).mul(pool.allocPoint).div(totalAllocPoint) */\n      tag_96\n        /* \"PolarAI/Masterchef_HKHH.sol\":3726:3741  totalAllocPoint */\n      sload(0x03)\n        /* \"PolarAI/Masterchef_HKHH.sol\":3680:3721  multiplier.mul(1000).mul(pool.allocPoint) */\n      tag_97\n        /* \"PolarAI/Masterchef_HKHH.sol\":3705:3709  pool */\n      dup7\n        /* \"PolarAI/Masterchef_HKHH.sol\":3705:3720  pool.allocPoint */\n      0x01\n      add\n      sload\n        /* \"PolarAI/Masterchef_HKHH.sol\":3680:3700  multiplier.mul(1000) */\n      tag_98\n        /* \"PolarAI/Masterchef_HKHH.sol\":3695:3699  1000 */\n      0x03e8\n        /* \"PolarAI/Masterchef_HKHH.sol\":3680:3690  multiplier */\n      dup8\n        /* \"PolarAI/Masterchef_HKHH.sol\":3680:3694  multiplier.mul */\n      tag_54\n      swap1\n        /* \"PolarAI/Masterchef_HKHH.sol\":3680:3700  multiplier.mul(1000) */\n      swap2\n      swap1\n      0xffffffff\n      and\n      jump\t// in\n    tag_98:\n        /* \"PolarAI/Masterchef_HKHH.sol\":3680:3704  multiplier.mul(1000).mul */\n      tag_54\n      swap1\n        /* \"PolarAI/Masterchef_HKHH.sol\":3680:3721  multiplier.mul(1000).mul(pool.allocPoint) */\n      swap2\n      swap1\n      0xffffffff\n      and\n      jump\t// in\n    tag_97:\n        /* \"PolarAI/Masterchef_HKHH.sol\":3680:3725  multiplier.mul(1000).mul(pool.allocPoint).div */\n      tag_55\n      swap1\n        /* \"PolarAI/Masterchef_HKHH.sol\":3680:3742  multiplier.mul(1000).mul(pool.allocPoint).div(totalAllocPoint) */\n      swap2\n      swap1\n      0xffffffff\n      and\n      jump\t// in\n    tag_96:\n        /* \"PolarAI/Masterchef_HKHH.sol\":3658:3742  uint256 sushiReward = multiplier.mul(1000).mul(pool.allocPoint).div(totalAllocPoint) */\n      swap1\n      pop\n        /* \"PolarAI/Masterchef_HKHH.sol\":3792:3797  sushi */\n      0x00\n      dup1\n      sload\n      swap1\n      0x0100\n      exp\n      swap1\n      div\n      0xffffffffffffffffffffffffffffffffffffffff\n      and\n        /* \"PolarAI/Masterchef_HKHH.sol\":3792:3802  sushi.mint */\n      0xffffffffffffffffffffffffffffffffffffffff\n      and\n      0x40c10f19\n        /* \"PolarAI/Masterchef_HKHH.sol\":3811:3815  this */\n      address\n        /* \"PolarAI/Masterchef_HKHH.sol\":3818:3829  sushiReward */\n      dup4\n        /* \"PolarAI/Masterchef_HKHH.sol\":3792:3830  sushi.mint(address(this), sushiReward) */\n      mload(0x40)\n      dup4\n      0xffffffff\n      and\n      0xe0\n      shl\n      dup2\n      mstore\n      0x04\n      add\n      dup1\n      dup4\n      0xffffffffffffffffffffffffffffffffffffffff\n      and\n      dup2\n      mstore\n      0x20\n      add\n      dup3\n      dup2\n      mstore\n      0x20\n      add\n      swap3\n      pop\n      pop\n      pop\n      0x00\n      mload(0x40)\n      dup1\n      dup4\n      sub\n      dup2\n      0x00\n      dup8\n      dup1\n      extcodesize\n      iszero\n      dup1\n      iszero\n      tag_99\n      jumpi\n      0x00\n      dup1\n      revert\n    tag_99:\n      pop\n      gas\n      call\n      iszero\n      dup1\n      iszero\n      tag_101\n      jumpi\n      returndatasize\n      0x00\n      dup1\n      returndatacopy\n      revert(0x00, returndatasize)\n    tag_101:\n      pop\n      pop\n      pop\n      pop\n        /* \"PolarAI/Masterchef_HKHH.sol\":3908:3970  pool.accSushiPerShare.add(sushiReward.mul(1e12).div(lpSupply)) */\n      tag_102\n        /* \"PolarAI/Masterchef_HKHH.sol\":3934:3969  sushiReward.mul(1e12).div(lpSupply) */\n      tag_103\n        /* \"PolarAI/Masterchef_HKHH.sol\":3960:3968  lpSupply */\n      dup5\n        /* \"PolarAI/Masterchef_HKHH.sol\":3934:3955  sushiReward.mul(1e12) */\n      tag_104\n        /* \"PolarAI/Masterchef_HKHH.sol\":3950:3954  1e12 */\n      0xe8d4a51000\n        /* \"PolarAI/Masterchef_HKHH.sol\":3934:3945  sushiReward */\n      dup6\n        /* \"PolarAI/Masterchef_HKHH.sol\":3934:3949  sushiReward.mul */\n      tag_54\n      swap1\n        /* \"PolarAI/Masterchef_HKHH.sol\":3934:3955  sushiReward.mul(1e12) */\n      swap2\n      swap1\n      0xffffffff\n      and\n      jump\t// in\n    tag_104:\n        /* \"PolarAI/Masterchef_HKHH.sol\":3934:3959  sushiReward.mul(1e12).div */\n      tag_55\n      swap1\n        /* \"PolarAI/Masterchef_HKHH.sol\":3934:3969  sushiReward.mul(1e12).div(lpSupply) */\n      swap2\n      swap1\n      0xffffffff\n      and\n      jump\t// in\n    tag_103:\n        /* \"PolarAI/Masterchef_HKHH.sol\":3908:3912  pool */\n      dup6\n        /* \"PolarAI/Masterchef_HKHH.sol\":3908:3929  pool.accSushiPerShare */\n      0x03\n      add\n      sload\n        /* \"PolarAI/Masterchef_HKHH.sol\":3908:3933  pool.accSushiPerShare.add */\n      tag_41\n      swap1\n        /* \"PolarAI/Masterchef_HKHH.sol\":3908:3970  pool.accSushiPerShare.add(sushiReward.mul(1e12).div(lpSupply)) */\n      swap2\n      swap1\n      0xffffffff\n      and\n      jump\t// in\n    tag_102:\n        /* \"PolarAI/Masterchef_HKHH.sol\":3884:3888  pool */\n      dup5\n        /* \"PolarAI/Masterchef_HKHH.sol\":3884:3905  pool.accSushiPerShare */\n      0x03\n      add\n        /* \"PolarAI/Masterchef_HKHH.sol\":3884:3970  pool.accSushiPerShare = pool.accSushiPerShare.add(sushiReward.mul(1e12).div(lpSupply)) */\n      dup2\n      swap1\n      sstore\n      pop\n        /* \"PolarAI/Masterchef_HKHH.sol\":4003:4015  block.number */\n      number\n        /* \"PolarAI/Masterchef_HKHH.sol\":3980:3984  pool */\n      dup5\n        /* \"PolarAI/Masterchef_HKHH.sol\":3980:4000  pool.lastRewardBlock */\n      0x02\n      add\n        /* \"PolarAI/Masterchef_HKHH.sol\":3980:4015  pool.lastRewardBlock = block.number */\n      dup2\n      swap1\n      sstore\n      pop\n        /* \"PolarAI/Masterchef_HKHH.sol\":3044:4022  function updatePool(uint256 _pid)  private{... */\n      pop\n      pop\n      pop\n      pop\n    tag_85:\n      pop\n      jump\t// out\n        /* \"PolarAI/interface.sol\":4978:5437  function mul(uint256 a, uint256 b) internal pure returns (uint256) {... */\n    tag_54:\n        /* \"PolarAI/interface.sol\":5036:5043  uint256 */\n      0x00\n        /* \"PolarAI/interface.sol\":5282:5283  0 */\n      dup1\n        /* \"PolarAI/interface.sol\":5277:5278  a */\n      dup4\n        /* \"PolarAI/interface.sol\":5277:5283  a == 0 */\n      eq\n        /* \"PolarAI/interface.sol\":5273:5318  if (a == 0) {... */\n      iszero\n      tag_106\n      jumpi\n        /* \"PolarAI/interface.sol\":5306:5307  0 */\n      0x00\n        /* \"PolarAI/interface.sol\":5299:5307  return 0 */\n      swap1\n      pop\n      jump(tag_105)\n        /* \"PolarAI/interface.sol\":5273:5318  if (a == 0) {... */\n    tag_106:\n        /* \"PolarAI/interface.sol\":5328:5337  uint256 c */\n      0x00\n        /* \"PolarAI/interface.sol\":5344:5345  b */\n      dup3\n        /* \"PolarAI/interface.sol\":5340:5341  a */\n      dup5\n        /* \"PolarAI/interface.sol\":5340:5345  a * b */\n      mul\n        /* \"PolarAI/interface.sol\":5328:5345  uint256 c = a * b */\n      swap1\n      pop\n        /* \"PolarAI/interface.sol\":5372:5373  b */\n      dup3\n        /* \"PolarAI/interface.sol\":5367:5368  a */\n      dup5\n        /* \"PolarAI/interface.sol\":5363:5364  c */\n      dup3\n        /* \"PolarAI/interface.sol\":5363:5368  c / a */\n      dup2\n      tag_107\n      jumpi\n      invalid\n    tag_107:\n      div\n        /* \"PolarAI/interface.sol\":5363:5373  c / a == b */\n      eq\n        /* \"PolarAI/interface.sol\":5355:5411  require(c / a == b, \"SafeMath: multiplication overflow\") */\n      tag_108\n      jumpi\n      mload(0x40)\n      0x08c379a000000000000000000000000000000000000000000000000000000000\n      dup2\n      mstore\n      0x04\n      add\n      dup1\n      dup1\n      0x20\n      add\n      dup3\n      dup2\n      sub\n      dup3\n      mstore\n      0x21\n      dup2\n      mstore\n      0x20\n      add\n      dup1\n      data_9113bb53c2876a3805b2c9242029423fc540a728243ce887ab24c82cf119fba3\n      0x21\n      swap2\n      codecopy\n      0x40\n      add\n      swap2\n      pop\n      pop\n      mload(0x40)\n      dup1\n      swap2\n      sub\n      swap1\n      revert\n    tag_108:\n        /* \"PolarAI/interface.sol\":5429:5430  c */\n      dup1\n        /* \"PolarAI/interface.sol\":5422:5430  return c */\n      swap2\n      pop\n      pop\n        /* \"PolarAI/interface.sol\":4978:5437  function mul(uint256 a, uint256 b) internal pure returns (uint256) {... */\n    tag_105:\n      swap3\n      swap2\n      pop\n      pop\n      jump\t// out\n        /* \"PolarAI/interface.sol\":5899:6029  function div(uint256 a, uint256 b) internal pure returns (uint256) {... */\n    tag_55:\n        /* \"PolarAI/interface.sol\":5957:5964  uint256 */\n      0x00\n        /* \"PolarAI/interface.sol\":5983:6022  div(a, b, \"SafeMath: division by zero\") */\n      tag_110\n        /* \"PolarAI/interface.sol\":5987:5988  a */\n      dup4\n        /* \"PolarAI/interface.sol\":5990:5991  b */\n      dup4\n        /* \"PolarAI/interface.sol\":5983:6022  div(a, b, \"SafeMath: division by zero\") */\n      mload(0x40)\n      dup1\n      0x40\n      add\n      0x40\n      mstore\n      dup1\n      0x1a\n      dup2\n      mstore\n      0x20\n      add\n      0x536166654d6174683a206469766973696f6e206279207a65726f000000000000\n      dup2\n      mstore\n      pop\n        /* \"PolarAI/interface.sol\":5983:5986  div */\n      tag_111\n        /* \"PolarAI/interface.sol\":5983:6022  div(a, b, \"SafeMath: division by zero\") */\n      jump\t// in\n    tag_110:\n        /* \"PolarAI/interface.sol\":5976:6022  return div(a, b, \"SafeMath: division by zero\") */\n      swap1\n      pop\n        /* \"PolarAI/interface.sol\":5899:6029  function div(uint256 a, uint256 b) internal pure returns (uint256) {... */\n      swap3\n      swap2\n      pop\n      pop\n      jump\t// out\n        /* \"PolarAI/interface.sol\":4119:4253  function sub(uint256 a, uint256 b) internal pure returns (uint256) {... */\n    tag_56:\n        /* \"PolarAI/interface.sol\":4177:4184  uint256 */\n      0x00\n        /* \"PolarAI/interface.sol\":4203:4246  sub(a, b, \"SafeMath: subtraction overflow\") */\n      tag_113\n        /* \"PolarAI/interface.sol\":4207:4208  a */\n      dup4\n        /* \"PolarAI/interface.sol\":4210:4211  b */\n      dup4\n        /* \"PolarAI/interface.sol\":4203:4246  sub(a, b, \"SafeMath: subtraction overflow\") */\n      mload(0x40)\n      dup1\n      0x40\n      add\n      0x40\n      mstore\n      dup1\n      0x1e\n      dup2\n      mstore\n      0x20\n      add\n      0x536166654d6174683a207375627472616374696f6e206f766572666c6f770000\n      dup2\n      mstore\n      pop\n        /* \"PolarAI/interface.sol\":4203:4206  sub */\n      tag_114\n        /* \"PolarAI/interface.sol\":4203:4246  sub(a, b, \"SafeMath: subtraction overflow\") */\n      jump\t// in\n    tag_113:\n        /* \"PolarAI/interface.sol\":4196:4246  return sub(a, b, \"SafeMath: subtraction overflow\") */\n      swap1\n      pop\n        /* \"PolarAI/interface.sol\":4119:4253  function sub(uint256 a, uint256 b) internal pure returns (uint256) {... */\n      swap3\n      swap2\n      pop\n      pop\n      jump\t// out\n        /* \"PolarAI/interface.sol\":14736:14911  function safeTransfer(IERC20 token, address to, uint256 value) internal {... */\n    tag_65:\n        /* \"PolarAI/interface.sol\":14818:14904  _callOptionalReturn(token, abi.encodeWithSelector(token.transfer.selector, to, value)) */\n      tag_116\n        /* \"PolarAI/interface.sol\":14838:14843  token */\n      dup4\n        /* \"PolarAI/interface.sol\":14868:14891  token.transfer.selector */\n      shl(0xe0, 0xa9059cbb)\n        /* \"PolarAI/interface.sol\":14893:14895  to */\n      dup5\n        /* \"PolarAI/interface.sol\":14897:14902  value */\n      dup5\n        /* \"PolarAI/interface.sol\":14845:14903  abi.encodeWithSelector(token.transfer.selector, to, value) */\n      add(0x24, mload(0x40))\n      dup1\n      dup4\n      0xffffffffffffffffffffffffffffffffffffffff\n      and\n      dup2\n      mstore\n      0x20\n      add\n      dup3\n      dup2\n      mstore\n      0x20\n      add\n      swap3\n      pop\n      pop\n      pop\n      mload(0x40)\n      0x20\n      dup2\n      dup4\n      sub\n      sub\n      dup2\n      mstore\n      swap1\n      0x40\n      mstore\n      swap1\n      not(0xffffffffffffffffffffffffffffffffffffffffffffffffffffffff)\n      and\n      0x20\n      dup3\n      add\n      dup1\n      mload\n      0xffffffffffffffffffffffffffffffffffffffffffffffffffffffff\n      dup4\n      dup2\n      dup4\n      and\n      or\n      dup4\n      mstore\n      pop\n      pop\n      pop\n      pop\n        /* \"PolarAI/interface.sol\":14818:14837  _callOptionalReturn */\n      tag_117\n        /* \"PolarAI/interface.sol\":14818:14904  _callOptionalReturn(token, abi.encodeWithSelector(token.transfer.selector, to, value)) */\n      jump\t// in\n    tag_116:\n        /* \"PolarAI/interface.sol\":14736:14911  function safeTransfer(IERC20 token, address to, uint256 value) internal {... */\n      pop\n      pop\n      pop\n      jump\t// out\n        /* \"PolarAI/interface.sol\":14917:15120  function safeTransferFrom(IERC20 token, address from, address to, uint256 value) internal {... */\n    tag_79:\n        /* \"PolarAI/interface.sol\":15017:15113  _callOptionalReturn(token, abi.encodeWithSelector(token.transferFrom.selector, from, to, value)) */\n      tag_119\n        /* \"PolarAI/interface.sol\":15037:15042  token */\n      dup5\n        /* \"PolarAI/interface.sol\":15067:15094  token.transferFrom.selector */\n      shl(0xe0, 0x23b872dd)\n        /* \"PolarAI/interface.sol\":15096:15100  from */\n      dup6\n        /* \"PolarAI/interface.sol\":15102:15104  to */\n      dup6\n        /* \"PolarAI/interface.sol\":15106:15111  value */\n      dup6\n        /* \"PolarAI/interface.sol\":15044:15112  abi.encodeWithSelector(token.transferFrom.selector, from, to, value) */\n      add(0x24, mload(0x40))\n      dup1\n      dup5\n      0xffffffffffffffffffffffffffffffffffffffff\n      and\n      dup2\n      mstore\n      0x20\n      add\n      dup4\n      0xffffffffffffffffffffffffffffffffffffffff\n      and\n      dup2\n      mstore\n      0x20\n      add\n      dup3\n      dup2\n      mstore\n      0x20\n      add\n      swap4\n      pop\n      pop\n      pop\n      pop\n      mload(0x40)\n      0x20\n      dup2\n      dup4\n      sub\n      sub\n      dup2\n      mstore\n      swap1\n      0x40\n      mstore\n      swap1\n      not(0xffffffffffffffffffffffffffffffffffffffffffffffffffffffff)\n      and\n      0x20\n      dup3\n      add\n      dup1\n      mload\n      0xffffffffffffffffffffffffffffffffffffffffffffffffffffffff\n      dup4\n      dup2\n      dup4\n      and\n      or\n      dup4\n      mstore\n      pop\n      pop\n      pop\n      pop\n        /* \"PolarAI/interface.sol\":15017:15036  _callOptionalReturn */\n      tag_117\n        /* \"PolarAI/interface.sol\":15017:15113  _callOptionalReturn(token, abi.encodeWithSelector(token.transferFrom.selector, from, to, value)) */\n      jump\t// in\n    tag_119:\n        /* \"PolarAI/interface.sol\":14917:15120  function safeTransferFrom(IERC20 token, address from, address to, uint256 value) internal {... */\n      pop\n      pop\n      pop\n      pop\n      jump\t// out\n        /* \"PolarAI/Masterchef_HKHH.sol\":2813:2937  function getMultiplier(uint256 _from, uint256 _to) private pure returns (uint256) {... */\n    tag_95:\n        /* \"PolarAI/Masterchef_HKHH.sol\":2886:2893  uint256 */\n      0x00\n        /* \"PolarAI/Masterchef_HKHH.sol\":2916:2930  _to.sub(_from) */\n      tag_121\n        /* \"PolarAI/Masterchef_HKHH.sol\":2924:2929  _from */\n      dup4\n        /* \"PolarAI/Masterchef_HKHH.sol\":2916:2919  _to */\n      dup4\n        /* \"PolarAI/Masterchef_HKHH.sol\":2916:2923  _to.sub */\n      tag_56\n      swap1\n        /* \"PolarAI/Masterchef_HKHH.sol\":2916:2930  _to.sub(_from) */\n      swap2\n      swap1\n      0xffffffff\n      and\n      jump\t// in\n    tag_121:\n        /* \"PolarAI/Masterchef_HKHH.sol\":2909:2930  return _to.sub(_from) */\n      swap1\n      pop\n        /* \"PolarAI/Masterchef_HKHH.sol\":2813:2937  function getMultiplier(uint256 _from, uint256 _to) private pure returns (uint256) {... */\n      swap3\n      swap2\n      pop\n      pop\n      jump\t// out\n        /* \"PolarAI/interface.sol\":6511:6783  function div(uint256 a, uint256 b, string memory errorMessage) internal pure returns (uint256) {... */\n    tag_111:\n        /* \"PolarAI/interface.sol\":6597:6604  uint256 */\n      0x00\n        /* \"PolarAI/interface.sol\":6628:6629  0 */\n      dup1\n        /* \"PolarAI/interface.sol\":6624:6625  b */\n      dup4\n        /* \"PolarAI/interface.sol\":6624:6629  b > 0 */\n      gt\n        /* \"PolarAI/interface.sol\":6631:6643  errorMessage */\n      dup3\n        /* \"PolarAI/interface.sol\":6616:6644  require(b > 0, errorMessage) */\n      swap1\n      tag_123\n      jumpi\n      mload(0x40)\n      0x08c379a000000000000000000000000000000000000000000000000000000000\n      dup2\n      mstore\n      0x04\n      add\n      dup1\n      dup1\n      0x20\n      add\n      dup3\n      dup2\n      sub\n      dup3\n      mstore\n      dup4\n      dup2\n      dup2\n      mload\n      dup2\n      mstore\n      0x20\n      add\n      swap2\n      pop\n      dup1\n      mload\n      swap1\n      0x20\n      add\n      swap1\n      dup1\n      dup4\n      dup4\n      0x00\n    tag_124:\n      dup4\n      dup2\n      lt\n      iszero\n      tag_126\n      jumpi\n      dup1\n      dup3\n      add\n      mload\n      dup2\n      dup5\n      add\n      mstore\n      0x20\n      dup2\n      add\n      swap1\n      pop\n      jump(tag_124)\n    tag_126:\n      pop\n      pop\n      pop\n      pop\n      swap1\n      pop\n      swap1\n      dup2\n      add\n      swap1\n      0x1f\n      and\n      dup1\n      iszero\n      tag_127\n      jumpi\n      dup1\n      dup3\n      sub\n      dup1\n      mload\n      0x01\n      dup4\n      0x20\n      sub\n      0x0100\n      exp\n      sub\n      not\n      and\n      dup2\n      mstore\n      0x20\n      add\n      swap2\n      pop\n    tag_127:\n      pop\n      swap3\n      pop\n      pop\n      pop\n      mload(0x40)\n      dup1\n      swap2\n      sub\n      swap1\n      revert\n    tag_123:\n      pop\n        /* \"PolarAI/interface.sol\":6654:6663  uint256 c */\n      0x00\n        /* \"PolarAI/interface.sol\":6670:6671  b */\n      dup4\n        /* \"PolarAI/interface.sol\":6666:6667  a */\n      dup6\n        /* \"PolarAI/interface.sol\":6666:6671  a / b */\n      dup2\n      tag_128\n      jumpi\n      invalid\n    tag_128:\n      div\n        /* \"PolarAI/interface.sol\":6654:6671  uint256 c = a / b */\n      swap1\n      pop\n        /* \"PolarAI/interface.sol\":6775:6776  c */\n      dup1\n        /* \"PolarAI/interface.sol\":6768:6776  return c */\n      swap2\n      pop\n      pop\n        /* \"PolarAI/interface.sol\":6511:6783  function div(uint256 a, uint256 b, string memory errorMessage) internal pure returns (uint256) {... */\n      swap4\n      swap3\n      pop\n      pop\n      pop\n      jump\t// out\n        /* \"PolarAI/interface.sol\":4544:4731  function sub(uint256 a, uint256 b, string memory errorMessage) internal pure returns (uint256) {... */\n    tag_114:\n        /* \"PolarAI/interface.sol\":4630:4637  uint256 */\n      0x00\n        /* \"PolarAI/interface.sol\":4662:4663  a */\n      dup4\n        /* \"PolarAI/interface.sol\":4657:4658  b */\n      dup4\n        /* \"PolarAI/interface.sol\":4657:4663  b <= a */\n      gt\n      iszero\n        /* \"PolarAI/interface.sol\":4665:4677  errorMessage */\n      dup3\n        /* \"PolarAI/interface.sol\":4649:4678  require(b <= a, errorMessage) */\n      swap1\n      tag_130\n      jumpi\n      mload(0x40)\n      0x08c379a000000000000000000000000000000000000000000000000000000000\n      dup2\n      mstore\n      0x04\n      add\n      dup1\n      dup1\n      0x20\n      add\n      dup3\n      dup2\n      sub\n      dup3\n      mstore\n      dup4\n      dup2\n      dup2\n      mload\n      dup2\n      mstore\n      0x20\n      add\n      swap2\n      pop\n      dup1\n      mload\n      swap1\n      0x20\n      add\n      swap1\n      dup1\n      dup4\n      dup4\n      0x00\n    tag_131:\n      dup4\n      dup2\n      lt\n      iszero\n      tag_133\n      jumpi\n      dup1\n      dup3\n      add\n      mload\n      dup2\n      dup5\n      add\n      mstore\n      0x20\n      dup2\n      add\n      swap1\n      pop\n      jump(tag_131)\n    tag_133:\n      pop\n      pop\n      pop\n      pop\n      swap1\n      pop\n      swap1\n      dup2\n      add\n      swap1\n      0x1f\n      and\n      dup1\n      iszero\n      tag_134\n      jumpi\n      dup1\n      dup3\n      sub\n      dup1\n      mload\n      0x01\n      dup4\n      0x20\n      sub\n      0x0100\n      exp\n      sub\n      not\n      and\n      dup2\n      mstore\n      0x20\n      add\n      swap2\n      pop\n    tag_134:\n      pop\n      swap3\n      pop\n      pop\n      pop\n      mload(0x40)\n      dup1\n      swap2\n      sub\n      swap1\n      revert\n    tag_130:\n      pop\n        /* \"PolarAI/interface.sol\":4688:4697  uint256 c */\n      0x00\n        /* \"PolarAI/interface.sol\":4704:4705  b */\n      dup4\n        /* \"PolarAI/interface.sol\":4700:4701  a */\n      dup6\n        /* \"PolarAI/interface.sol\":4700:4705  a - b */\n      sub\n        /* \"PolarAI/interface.sol\":4688:4705  uint256 c = a - b */\n      swap1\n      pop\n        /* \"PolarAI/interface.sol\":4723:4724  c */\n      dup1\n        /* \"PolarAI/interface.sol\":4716:4724  return c */\n      swap2\n      pop\n      pop\n        /* \"PolarAI/interface.sol\":4544:4731  function sub(uint256 a, uint256 b, string memory errorMessage) internal pure returns (uint256) {... */\n      swap4\n      swap3\n      pop\n      pop\n      pop\n      jump\t// out\n        /* \"PolarAI/interface.sol\":16999:17750  function _callOptionalReturn(IERC20 token, bytes memory data) private {... */\n    tag_117:\n        /* \"PolarAI/interface.sol\":17418:17441  bytes memory returndata */\n      0x60\n        /* \"PolarAI/interface.sol\":17444:17513  address(token).functionCall(data, \"SafeERC20: low-level call failed\") */\n      tag_136\n        /* \"PolarAI/interface.sol\":17472:17476  data */\n      dup3\n        /* \"PolarAI/interface.sol\":17444:17513  address(token).functionCall(data, \"SafeERC20: low-level call failed\") */\n      mload(0x40)\n      dup1\n      0x40\n      add\n      0x40\n      mstore\n      dup1\n      0x20\n      dup2\n      mstore\n      0x20\n      add\n      0x5361666545524332303a206c6f772d6c6576656c2063616c6c206661696c6564\n      dup2\n      mstore\n      pop\n        /* \"PolarAI/interface.sol\":17452:17457  token */\n      dup6\n        /* \"PolarAI/interface.sol\":17444:17471  address(token).functionCall */\n      0xffffffffffffffffffffffffffffffffffffffff\n      and\n      tag_137\n      swap1\n        /* \"PolarAI/interface.sol\":17444:17513  address(token).functionCall(data, \"SafeERC20: low-level call failed\") */\n      swap3\n      swap2\n      swap1\n      0xffffffff\n      and\n      jump\t// in\n    tag_136:\n        /* \"PolarAI/interface.sol\":17418:17513  bytes memory returndata = address(token).functionCall(data, \"SafeERC20: low-level call failed\") */\n      swap1\n      pop\n        /* \"PolarAI/interface.sol\":17547:17548  0 */\n      0x00\n        /* \"PolarAI/interface.sol\":17527:17537  returndata */\n      dup2\n        /* \"PolarAI/interface.sol\":17527:17544  returndata.length */\n      mload\n        /* \"PolarAI/interface.sol\":17527:17548  returndata.length > 0 */\n      gt\n        /* \"PolarAI/interface.sol\":17523:17744  if (returndata.length > 0) { // Return data is optional... */\n      iszero\n      tag_138\n      jumpi\n        /* \"PolarAI/interface.sol\":17667:17677  returndata */\n      dup1\n        /* \"PolarAI/interface.sol\":17656:17686  abi.decode(returndata, (bool)) */\n      dup1\n      0x20\n      add\n      swap1\n      mload\n      0x20\n      dup2\n      lt\n      iszero\n      tag_139\n      jumpi\n      0x00\n      dup1\n      revert\n    tag_139:\n      dup2\n      add\n      swap1\n      dup1\n      dup1\n      mload\n      swap1\n      0x20\n      add\n      swap1\n      swap3\n      swap2\n      swap1\n      pop\n      pop\n      pop\n        /* \"PolarAI/interface.sol\":17648:17733  require(abi.decode(returndata, (bool)), \"SafeERC20: ERC20 operation did not succeed\") */\n      tag_140\n      jumpi\n      mload(0x40)\n      0x08c379a000000000000000000000000000000000000000000000000000000000\n      dup2\n      mstore\n      0x04\n      add\n      dup1\n      dup1\n      0x20\n      add\n      dup3\n      dup2\n      sub\n      dup3\n      mstore\n      0x2a\n      dup2\n      mstore\n      0x20\n      add\n      dup1\n      data_e11ad79d1e4a7f2e5f376964cb99e8e8f7904e3fc16a109f7a7ecb9aa7956dcd\n      0x2a\n      swap2\n      codecopy\n      0x40\n      add\n      swap2\n      pop\n      pop\n      mload(0x40)\n      dup1\n      swap2\n      sub\n      swap1\n      revert\n    tag_140:\n        /* \"PolarAI/interface.sol\":17523:17744  if (returndata.length > 0) { // Return data is optional... */\n    tag_138:\n        /* \"PolarAI/interface.sol\":16999:17750  function _callOptionalReturn(IERC20 token, bytes memory data) private {... */\n      pop\n      pop\n      pop\n      jump\t// out\n        /* \"PolarAI/interface.sol\":11791:11985  function functionCall(address target, bytes memory data, string memory errorMessage) internal returns (bytes memory) {... */\n    tag_137:\n        /* \"PolarAI/interface.sol\":11894:11906  bytes memory */\n      0x60\n        /* \"PolarAI/interface.sol\":11925:11978  _functionCallWithValue(target, data, 0, errorMessage) */\n      tag_142\n        /* \"PolarAI/interface.sol\":11948:11954  target */\n      dup5\n        /* \"PolarAI/interface.sol\":11956:11960  data */\n      dup5\n        /* \"PolarAI/interface.sol\":11962:11963  0 */\n      0x00\n        /* \"PolarAI/interface.sol\":11965:11977  errorMessage */\n      dup6\n        /* \"PolarAI/interface.sol\":11925:11947  _functionCallWithValue */\n      tag_143\n        /* \"PolarAI/interface.sol\":11925:11978  _functionCallWithValue(target, data, 0, errorMessage) */\n      jump\t// in\n    tag_142:\n        /* \"PolarAI/interface.sol\":11918:11978  return _functionCallWithValue(target, data, 0, errorMessage) */\n      swap1\n      pop\n        /* \"PolarAI/interface.sol\":11791:11985  function functionCall(address target, bytes memory data, string memory errorMessage) internal returns (bytes memory) {... */\n      swap4\n      swap3\n      pop\n      pop\n      pop\n      jump\t// out\n        /* \"PolarAI/interface.sol\":13138:14096  function _functionCallWithValue(address target, bytes memory data, uint256 weiValue, string memory errorMessage) private returns (bytes memory) {... */\n    tag_143:\n        /* \"PolarAI/interface.sol\":13268:13280  bytes memory */\n      0x60\n        /* \"PolarAI/interface.sol\":13300:13318  isContract(target) */\n      tag_145\n        /* \"PolarAI/interface.sol\":13311:13317  target */\n      dup6\n        /* \"PolarAI/interface.sol\":13300:13310  isContract */\n      tag_146\n        /* \"PolarAI/interface.sol\":13300:13318  isContract(target) */\n      jump\t// in\n    tag_145:\n        /* \"PolarAI/interface.sol\":13292:13352  require(isContract(target), \"Address: call to non-contract\") */\n      tag_147\n      jumpi\n      mload(0x40)\n      0x08c379a000000000000000000000000000000000000000000000000000000000\n      dup2\n      mstore\n      0x04\n      add\n      dup1\n      dup1\n      0x20\n      add\n      dup3\n      dup2\n      sub\n      dup3\n      mstore\n      0x1d\n      dup2\n      mstore\n      0x20\n      add\n      dup1\n      0x416464726573733a2063616c6c20746f206e6f6e2d636f6e7472616374000000\n      dup2\n      mstore\n      pop\n      0x20\n      add\n      swap2\n      pop\n      pop\n      mload(0x40)\n      dup1\n      swap2\n      sub\n      swap1\n      revert\n    tag_147:\n        /* \"PolarAI/interface.sol\":13423:13435  bool success */\n      0x00\n        /* \"PolarAI/interface.sol\":13437:13460  bytes memory returndata */\n      0x60\n        /* \"PolarAI/interface.sol\":13464:13470  target */\n      dup7\n        /* \"PolarAI/interface.sol\":13464:13475  target.call */\n      0xffffffffffffffffffffffffffffffffffffffff\n      and\n        /* \"PolarAI/interface.sol\":13484:13492  weiValue */\n      dup6\n        /* \"PolarAI/interface.sol\":13495:13499  data */\n      dup8\n        /* \"PolarAI/interface.sol\":13464:13500  target.call{ value: weiValue }(data) */\n      mload(0x40)\n      dup1\n      dup3\n      dup1\n      mload\n      swap1\n      0x20\n      add\n      swap1\n      dup1\n      dup4\n      dup4\n    tag_148:\n      0x20\n      dup4\n      lt\n      tag_150\n      jumpi\n      dup1\n      mload\n      dup3\n      mstore\n      0x20\n      dup3\n      add\n      swap2\n      pop\n      0x20\n      dup2\n      add\n      swap1\n      pop\n      0x20\n      dup4\n      sub\n      swap3\n      pop\n      jump(tag_148)\n    tag_150:\n      0x01\n      dup4\n      0x20\n      sub\n      0x0100\n      exp\n      sub\n      dup1\n      not\n      dup3\n      mload\n      and\n      dup2\n      dup5\n      mload\n      and\n      dup1\n      dup3\n      or\n      dup6\n      mstore\n      pop\n      pop\n      pop\n      pop\n      pop\n      pop\n      swap1\n      pop\n      add\n      swap2\n      pop\n      pop\n      0x00\n      mload(0x40)\n      dup1\n      dup4\n      sub\n      dup2\n      dup6\n      dup8\n      gas\n      call\n      swap3\n      pop\n      pop\n      pop\n      returndatasize\n      dup1\n      0x00\n      dup2\n      eq\n      tag_153\n      jumpi\n      mload(0x40)\n      swap2\n      pop\n      and(add(returndatasize, 0x3f), not(0x1f))\n      dup3\n      add\n      0x40\n      mstore\n      returndatasize\n      dup3\n      mstore\n      returndatasize\n      0x00\n      0x20\n      dup5\n      add\n      returndatacopy\n      jump(tag_152)\n    tag_153:\n      0x60\n      swap2\n      pop\n    tag_152:\n      pop\n        /* \"PolarAI/interface.sol\":13422:13500  (bool success, bytes memory returndata) = target.call{ value: weiValue }(data) */\n      swap2\n      pop\n      swap2\n      pop\n        /* \"PolarAI/interface.sol\":13514:13521  success */\n      dup2\n        /* \"PolarAI/interface.sol\":13510:14090  if (success) {... */\n      iszero\n      tag_154\n      jumpi\n        /* \"PolarAI/interface.sol\":13544:13554  returndata */\n      dup1\n        /* \"PolarAI/interface.sol\":13537:13554  return returndata */\n      swap3\n      pop\n      pop\n      pop\n      jump(tag_144)\n        /* \"PolarAI/interface.sol\":13510:14090  if (success) {... */\n    tag_154:\n        /* \"PolarAI/interface.sol\":13675:13676  0 */\n      0x00\n        /* \"PolarAI/interface.sol\":13655:13665  returndata */\n      dup2\n        /* \"PolarAI/interface.sol\":13655:13672  returndata.length */\n      mload\n        /* \"PolarAI/interface.sol\":13655:13676  returndata.length > 0 */\n      gt\n        /* \"PolarAI/interface.sol\":13651:14080  if (returndata.length > 0) {... */\n      iszero\n      tag_156\n      jumpi\n        /* \"PolarAI/interface.sol\":13913:13923  returndata */\n      dup1\n        /* \"PolarAI/interface.sol\":13907:13924  mload(returndata) */\n      mload\n        /* \"PolarAI/interface.sol\":13973:13988  returndata_size */\n      dup1\n        /* \"PolarAI/interface.sol\":13960:13970  returndata */\n      dup3\n        /* \"PolarAI/interface.sol\":13956:13958  32 */\n      0x20\n        /* \"PolarAI/interface.sol\":13952:13971  add(32, returndata) */\n      add\n        /* \"PolarAI/interface.sol\":13945:13989  revert(add(32, returndata), returndata_size) */\n      revert\n        /* \"PolarAI/interface.sol\":13862:14007  {... */\n    tag_156:\n        /* \"PolarAI/interface.sol\":14052:14064  errorMessage */\n      dup4\n        /* \"PolarAI/interface.sol\":14045:14065  revert(errorMessage) */\n      mload(0x40)\n      0x08c379a000000000000000000000000000000000000000000000000000000000\n      dup2\n      mstore\n      0x04\n      add\n      dup1\n      dup1\n      0x20\n      add\n      dup3\n      dup2\n      sub\n      dup3\n      mstore\n      dup4\n      dup2\n      dup2\n      mload\n      dup2\n      mstore\n      0x20\n      add\n      swap2\n      pop\n      dup1\n      mload\n      swap1\n      0x20\n      add\n      swap1\n      dup1\n      dup4\n      dup4\n      0x00\n    tag_158:\n      dup4\n      dup2\n      lt\n      iszero\n      tag_160\n      jumpi\n      dup1\n      dup3\n      add\n      mload\n      dup2\n      dup5\n      add\n      mstore\n      0x20\n      dup2\n      add\n      swap1\n      pop\n      jump(tag_158)\n    tag_160:\n      pop\n      pop\n      pop\n      pop\n      swap1\n      pop\n      swap1\n      dup2\n      add\n      swap1\n      0x1f\n      and\n      dup1\n      iszero\n      tag_161\n      jumpi\n      dup1\n      dup3\n      sub\n      dup1\n      mload\n      0x01\n      dup4\n      0x20\n      sub\n      0x0100\n      exp\n      sub\n      not\n      and\n      dup2\n      mstore\n      0x20\n      add\n      swap2\n      pop\n    tag_161:\n      pop\n      swap3\n      pop\n      pop\n      pop\n      mload(0x40)\n      dup1\n      swap2\n      sub\n      swap1\n      revert\n        /* \"PolarAI/interface.sol\":13138:14096  function _functionCallWithValue(address target, bytes memory data, uint256 weiValue, string memory errorMessage) private returns (bytes memory) {... */\n    tag_144:\n      swap5\n      swap4\n      pop\n      pop\n      pop\n      pop\n      jump\t// out\n        /* \"PolarAI/interface.sol\":8739:9349  function isContract(address account) internal view returns (bool) {... */\n    tag_146:\n        /* \"PolarAI/interface.sol\":8799:8803  bool */\n      0x00\n        /* \"PolarAI/interface.sol\":9057:9073  bytes32 codehash */\n      dup1\n        /* \"PolarAI/interface.sol\":9083:9102  bytes32 accountHash */\n      0x00\n        /* \"PolarAI/interface.sol\":9105:9171  0xc5d2460186f7233c927e7db2dcc703c0e500b653ca82273b7bfad8045d85a470 */\n      0xc5d2460186f7233c927e7db2dcc703c0e500b653ca82273b7bfad8045d85a470\n        /* \"PolarAI/interface.sol\":9083:9171  bytes32 accountHash = 0xc5d2460186f7233c927e7db2dcc703c0e500b653ca82273b7bfad8045d85a470 */\n      0x00\n      shl\n      swap1\n      pop\n        /* \"PolarAI/interface.sol\":9272:9279  account */\n      dup4\n        /* \"PolarAI/interface.sol\":9260:9280  extcodehash(account) */\n      extcodehash\n        /* \"PolarAI/interface.sol\":9248:9280  codehash := extcodehash(account) */\n      swap2\n      pop\n        /* \"PolarAI/interface.sol\":9311:9322  accountHash */\n      dup1\n        /* \"PolarAI/interface.sol\":9299:9307  codehash */\n      dup3\n        /* \"PolarAI/interface.sol\":9299:9322  codehash != accountHash */\n      eq\n      iszero\n        /* \"PolarAI/interface.sol\":9299:9341  codehash != accountHash && codehash != 0x0 */\n      dup1\n      iszero\n      tag_163\n      jumpi\n      pop\n        /* \"PolarAI/interface.sol\":9338:9341  0x0 */\n      0x00\n        /* \"PolarAI/interface.sol\":9326:9341  codehash != 0x0 */\n      dup1\n      shl\n        /* \"PolarAI/interface.sol\":9326:9334  codehash */\n      dup3\n        /* \"PolarAI/interface.sol\":9326:9341  codehash != 0x0 */\n      eq\n      iszero\n        /* \"PolarAI/interface.sol\":9299:9341  codehash != accountHash && codehash != 0x0 */\n    tag_163:\n        /* \"PolarAI/interface.sol\":9291:9342  return (codehash != accountHash && codehash != 0x0) */\n      swap3\n      pop\n      pop\n      pop\n        /* \"PolarAI/interface.sol\":8739:9349  function isContract(address account) internal view returns (bool) {... */\n      swap2\n      swap1\n      pop\n      jump\t// out\n    stop\n    data_9113bb53c2876a3805b2c9242029423fc540a728243ce887ab24c82cf119fba3 536166654d6174683a206d756c7469706c69636174696f6e206f766572666c6f77\n    data_e11ad79d1e4a7f2e5f376964cb99e8e8f7904e3fc16a109f7a7ecb9aa7956dcd 5361666545524332303a204552433230206f7065726174696f6e20646964206e6f742073756363656564\n\n    auxdata: 0xa2646970667358221220958e05ecea541acda395b68ace803ba22be3e798c957159eef574f929652c8bd64736f6c634300060c0033\n}\n",
				"bytecode": {
					"linkReferences": {},
					"object": "60806040526000600355600060045534801561001a57600080fd5b506040516115b63803806115b68339818101604052602081101561003d57600080fd5b8101908080519060200190929190505050806000806101000a81548173ffffffffffffffffffffffffffffffffffffffff021916908373ffffffffffffffffffffffffffffffffffffffff160217905550506115188061009e6000396000f3fe608060405234801561001057600080fd5b50600436106100935760003560e01c806317caf6f11161006657806317caf6f11461019b578063441a3e70146101b957806348cd4cb1146101f157806393f1a40b1461020f578063e2bbb1581461027857610093565b8063081e3eda146100985780630a087903146100b65780630a3b0a4f146100ea5780631526fe271461012e575b600080fd5b6100a06102b0565b6040518082815260200191505060405180910390f35b6100be6102bd565b604051808273ffffffffffffffffffffffffffffffffffffffff16815260200191505060405180910390f35b61012c6004803603602081101561010057600080fd5b81019080803573ffffffffffffffffffffffffffffffffffffffff1690602001909291905050506102e1565b005b61015a6004803603602081101561014457600080fd5b81019080803590602001909291905050506103e3565b604051808573ffffffffffffffffffffffffffffffffffffffff16815260200184815260200183815260200182815260200194505050505060405180910390f35b6101a3610440565b6040518082815260200191505060405180910390f35b6101ef600480360360408110156101cf57600080fd5b810190808035906020019092919080359060200190929190505050610446565b005b6101f9610753565b6040518082815260200191505060405180910390f35b61025b6004803603604081101561022557600080fd5b8101908080359060200190929190803573ffffffffffffffffffffffffffffffffffffffff169060200190929190505050610759565b604051808381526020018281526020019250505060405180910390f35b6102ae6004803603604081101561028e57600080fd5b81019080803590602001909291908035906020019092919050505061078a565b005b6000600180549050905090565b60008054906101000a900473ffffffffffffffffffffffffffffffffffffffff1681565b600060045443116102f4576004546102f6565b435b905061030e6064600354610a2d90919063ffffffff16565b600381905550600160405180608001604052808473ffffffffffffffffffffffffffffffffffffffff168152602001606481526020018381526020016000815250908060018154018082558091505060019003906000526020600020906004020160009091909190915060008201518160000160006101000a81548173ffffffffffffffffffffffffffffffffffffffff021916908373ffffffffffffffffffffffffffffffffffffffff16021790555060208201518160010155604082015181600201556060820151816003015550505050565b600181815481106103f057fe5b90600052602060002090600402016000915090508060000160009054906101000a900473ffffffffffffffffffffffffffffffffffffffff16908060010154908060020154908060030154905084565b60035481565b60006001838154811061045557fe5b9060005260206000209060040201905060006002600085815260200190815260200160002060003373ffffffffffffffffffffffffffffffffffffffff1673ffffffffffffffffffffffffffffffffffffffff16815260200190815260200160002090508281600001541015610533576040517f08c379a00000000000000000000000000000000000000000000000000000000081526004018080602001828103825260128152602001807f77697468647261773a206e6f7420676f6f64000000000000000000000000000081525060200191505060405180910390fd5b61053c84610ab5565b6000610586826001015461057864e8d4a5100061056a87600301548760000154610d1f90919063ffffffff16565b610da590919063ffffffff16565b610def90919063ffffffff16565b905060008054906101000a900473ffffffffffffffffffffffffffffffffffffffff1673ffffffffffffffffffffffffffffffffffffffff1663a9059cbb33836040518363ffffffff1660e01b8152600401808373ffffffffffffffffffffffffffffffffffffffff16815260200182815260200192505050602060405180830381600087803b15801561061957600080fd5b505af115801561062d573d6000803e3d6000fd5b505050506040513d602081101561064357600080fd5b81019080805190602001909291905050505061066c848360000154610def90919063ffffffff16565b82600001819055506106a664e8d4a5100061069885600301548560000154610d1f90919063ffffffff16565b610da590919063ffffffff16565b82600101819055506106fd33858560000160009054906101000a900473ffffffffffffffffffffffffffffffffffffffff1673ffffffffffffffffffffffffffffffffffffffff16610e399092919063ffffffff16565b843373ffffffffffffffffffffffffffffffffffffffff167ff279e6a1f5e320cca91135676d9cb6e44ca8a08c0b88342bcdb1144f6511b568866040518082815260200191505060405180910390a35050505050565b60045481565b6002602052816000526040600020602052806000526040600020600091509150508060000154908060010154905082565b60006001838154811061079957fe5b9060005260206000209060040201905060006002600085815260200190815260200160002060003373ffffffffffffffffffffffffffffffffffffffff1673ffffffffffffffffffffffffffffffffffffffff168152602001908152602001600020905061080684610ab5565b60008160000154111561092e57600061085d826001015461084f64e8d4a5100061084187600301548760000154610d1f90919063ffffffff16565b610da590919063ffffffff16565b610def90919063ffffffff16565b905060008054906101000a900473ffffffffffffffffffffffffffffffffffffffff1673ffffffffffffffffffffffffffffffffffffffff1663a9059cbb33836040518363ffffffff1660e01b8152600401808373ffffffffffffffffffffffffffffffffffffffff16815260200182815260200192505050602060405180830381600087803b1580156108f057600080fd5b505af1158015610904573d6000803e3d6000fd5b505050506040513d602081101561091a57600080fd5b810190808051906020019092919050505050505b61097f3330858560000160009054906101000a900473ffffffffffffffffffffffffffffffffffffffff1673ffffffffffffffffffffffffffffffffffffffff16610edb909392919063ffffffff16565b610996838260000154610a2d90919063ffffffff16565b81600001819055506109d064e8d4a510006109c284600301548460000154610d1f90919063ffffffff16565b610da590919063ffffffff16565b8160010181905550833373ffffffffffffffffffffffffffffffffffffffff167f90890809c654f11d6e72a28fa60149770a0d11ec6c92319d6ceb2bb0a4ea1a15856040518082815260200191505060405180910390a350505050565b600080828401905083811015610aab576040517f08c379a000000000000000000000000000000000000000000000000000000000815260040180806020018281038252601b8152602001807f536166654d6174683a206164646974696f6e206f766572666c6f77000000000081525060200191505060405180910390fd5b8091505092915050565b600060018281548110610ac457fe5b9060005260206000209060040201905080600201544311610ae55750610d1c565b60008160000160009054906101000a900473ffffffffffffffffffffffffffffffffffffffff1673ffffffffffffffffffffffffffffffffffffffff166370a08231306040518263ffffffff1660e01b8152600401808273ffffffffffffffffffffffffffffffffffffffff16815260200191505060206040518083038186803b158015610b7257600080fd5b505afa158015610b86573d6000803e3d6000fd5b505050506040513d6020811015610b9c57600080fd5b810190808051906020019092919050505090506000811415610bc8574382600201819055505050610d1c565b6000610bd8836002015443610f9c565b90506000610c1b600354610c0d8660010154610bff6103e887610d1f90919063ffffffff16565b610d1f90919063ffffffff16565b610da590919063ffffffff16565b905060008054906101000a900473ffffffffffffffffffffffffffffffffffffffff1673ffffffffffffffffffffffffffffffffffffffff166340c10f1930836040518363ffffffff1660e01b8152600401808373ffffffffffffffffffffffffffffffffffffffff16815260200182815260200192505050600060405180830381600087803b158015610cae57600080fd5b505af1158015610cc2573d6000803e3d6000fd5b50505050610d06610cf384610ce564e8d4a5100085610d1f90919063ffffffff16565b610da590919063ffffffff16565b8560030154610a2d90919063ffffffff16565b8460030181905550438460020181905550505050505b50565b600080831415610d325760009050610d9f565b6000828402905082848281610d4357fe5b0414610d9a576040517f08c379a00000000000000000000000000000000000000000000000000000000081526004018080602001828103825260218152602001806114986021913960400191505060405180910390fd5b809150505b92915050565b6000610de783836040518060400160405280601a81526020017f536166654d6174683a206469766973696f6e206279207a65726f000000000000815250610fb9565b905092915050565b6000610e3183836040518060400160405280601e81526020017f536166654d6174683a207375627472616374696f6e206f766572666c6f77000081525061107f565b905092915050565b610ed68363a9059cbb60e01b8484604051602401808373ffffffffffffffffffffffffffffffffffffffff16815260200182815260200192505050604051602081830303815290604052907bffffffffffffffffffffffffffffffffffffffffffffffffffffffff19166020820180517bffffffffffffffffffffffffffffffffffffffffffffffffffffffff838183161783525050505061113f565b505050565b610f96846323b872dd60e01b858585604051602401808473ffffffffffffffffffffffffffffffffffffffff1681526020018373ffffffffffffffffffffffffffffffffffffffff1681526020018281526020019350505050604051602081830303815290604052907bffffffffffffffffffffffffffffffffffffffffffffffffffffffff19166020820180517bffffffffffffffffffffffffffffffffffffffffffffffffffffffff838183161783525050505061113f565b50505050565b6000610fb18383610def90919063ffffffff16565b905092915050565b60008083118290611065576040517f08c379a00000000000000000000000000000000000000000000000000000000081526004018080602001828103825283818151815260200191508051906020019080838360005b8381101561102a57808201518184015260208101905061100f565b50505050905090810190601f1680156110575780820380516001836020036101000a031916815260200191505b509250505060405180910390fd5b50600083858161107157fe5b049050809150509392505050565b600083831115829061112c576040517f08c379a00000000000000000000000000000000000000000000000000000000081526004018080602001828103825283818151815260200191508051906020019080838360005b838110156110f15780820151818401526020810190506110d6565b50505050905090810190601f16801561111e5780820380516001836020036101000a031916815260200191505b509250505060405180910390fd5b5060008385039050809150509392505050565b60606111a1826040518060400160405280602081526020017f5361666545524332303a206c6f772d6c6576656c2063616c6c206661696c65648152508573ffffffffffffffffffffffffffffffffffffffff1661122e9092919063ffffffff16565b9050600081511115611229578080602001905160208110156111c257600080fd5b8101908080519060200190929190505050611228576040517f08c379a000000000000000000000000000000000000000000000000000000000815260040180806020018281038252602a8152602001806114b9602a913960400191505060405180910390fd5b5b505050565b606061123d8484600085611246565b90509392505050565b60606112518561144c565b6112c3576040517f08c379a000000000000000000000000000000000000000000000000000000000815260040180806020018281038252601d8152602001807f416464726573733a2063616c6c20746f206e6f6e2d636f6e747261637400000081525060200191505060405180910390fd5b600060608673ffffffffffffffffffffffffffffffffffffffff1685876040518082805190602001908083835b6020831061131357805182526020820191506020810190506020830392506112f0565b6001836020036101000a03801982511681845116808217855250505050505090500191505060006040518083038185875af1925050503d8060008114611375576040519150601f19603f3d011682016040523d82523d6000602084013e61137a565b606091505b5091509150811561138f578092505050611444565b6000815111156113a25780518082602001fd5b836040517f08c379a00000000000000000000000000000000000000000000000000000000081526004018080602001828103825283818151815260200191508051906020019080838360005b838110156114095780820151818401526020810190506113ee565b50505050905090810190601f1680156114365780820380516001836020036101000a031916815260200191505b509250505060405180910390fd5b949350505050565b60008060007fc5d2460186f7233c927e7db2dcc703c0e500b653ca82273b7bfad8045d85a47060001b9050833f915080821415801561148e57506000801b8214155b9250505091905056fe536166654d6174683a206d756c7469706c69636174696f6e206f766572666c6f775361666545524332303a204552433230206f7065726174696f6e20646964206e6f742073756363656564a2646970667358221220958e05ecea541acda395b68ace803ba22be3e798c957159eef574f929652c8bd64736f6c634300060c0033",
					"opcodes": "PUSH1 0x80 PUSH1 0x40 MSTORE PUSH1 0x0 PUSH1 0x3 SSTORE PUSH1 0x0 PUSH1 0x4 SSTORE CALLVALUE DUP1 ISZERO PUSH2 0x1A JUMPI PUSH1 0x0 DUP1 REVERT JUMPDEST POP PUSH1 0x40 MLOAD PUSH2 0x15B6 CODESIZE SUB DUP1 PUSH2 0x15B6 DUP4 CODECOPY DUP2 DUP2 ADD PUSH1 0x40 MSTORE PUSH1 0x20 DUP2 LT ISZERO PUSH2 0x3D JUMPI PUSH1 0x0 DUP1 REVERT JUMPDEST DUP2 ADD SWAP1 DUP1 DUP1 MLOAD SWAP1 PUSH1 0x20 ADD SWAP1 SWAP3 SWAP2 SWAP1 POP POP POP DUP1 PUSH1 0x0 DUP1 PUSH2 0x100 EXP DUP2 SLOAD DUP2 PUSH20 0xFFFFFFFFFFFFFFFFFFFFFFFFFFFFFFFFFFFFFFFF MUL NOT AND SWAP1 DUP4 PUSH20 0xFFFFFFFFFFFFFFFFFFFFFFFFFFFFFFFFFFFFFFFF AND MUL OR SWAP1 SSTORE POP POP PUSH2 0x1518 DUP1 PUSH2 0x9E PUSH1 0x0 CODECOPY PUSH1 0x0 RETURN INVALID PUSH1 0x80 PUSH1 0x40 MSTORE CALLVALUE DUP1 ISZERO PUSH2 0x10 JUMPI PUSH1 0x0 DUP1 REVERT JUMPDEST POP PUSH1 0x4 CALLDATASIZE LT PUSH2 0x93 JUMPI PUSH1 0x0 CALLDATALOAD PUSH1 0xE0 SHR DUP1 PUSH4 0x17CAF6F1 GT PUSH2 0x66 JUMPI DUP1 PUSH4 0x17CAF6F1 EQ PUSH2 0x19B JUMPI DUP1 PUSH4 0x441A3E70 EQ PUSH2 0x1B9 JUMPI DUP1 PUSH4 0x48CD4CB1 EQ PUSH2 0x1F1 JUMPI DUP1 PUSH4 0x93F1A40B EQ PUSH2 0x20F JUMPI DUP1 PUSH4 0xE2BBB158 EQ PUSH2 0x278 JUMPI PUSH2 0x93 JUMP JUMPDEST DUP1 PUSH4 0x81E3EDA EQ PUSH2 0x98 JUMPI DUP1 PUSH4 0xA087903 EQ PUSH2 0xB6 JUMPI DUP1 PUSH4 0xA3B0A4F EQ PUSH2 0xEA JUMPI DUP1 PUSH4 0x1526FE27 EQ PUSH2 0x12E JUMPI JUMPDEST PUSH1 0x0 DUP1 REVERT JUMPDEST PUSH2 0xA0 PUSH2 0x2B0 JUMP JUMPDEST PUSH1 0x40 MLOAD DUP1 DUP3 DUP2 MSTORE PUSH1 0x20 ADD SWAP2 POP POP PUSH1 0x40 MLOAD DUP1 SWAP2 SUB SWAP1 RETURN JUMPDEST PUSH2 0xBE PUSH2 0x2BD JUMP JUMPDEST PUSH1 0x40 MLOAD DUP1 DUP3 PUSH20 0xFFFFFFFFFFFFFFFFFFFFFFFFFFFFFFFFFFFFFFFF AND DUP2 MSTORE PUSH1 0x20 ADD SWAP2 POP POP PUSH1 0x40 MLOAD DUP1 SWAP2 SUB SWAP1 RETURN JUMPDEST PUSH2 0x12C PUSH1 0x4 DUP1 CALLDATASIZE SUB PUSH1 0x20 DUP2 LT ISZERO PUSH2 0x100 JUMPI PUSH1 0x0 DUP1 REVERT JUMPDEST DUP2 ADD SWAP1 DUP1 DUP1 CALLDATALOAD PUSH20 0xFFFFFFFFFFFFFFFFFFFFFFFFFFFFFFFFFFFFFFFF AND SWAP1 PUSH1 0x20 ADD SWAP1 SWAP3 SWAP2 SWAP1 POP POP POP PUSH2 0x2E1 JUMP JUMPDEST STOP JUMPDEST PUSH2 0x15A PUSH1 0x4 DUP1 CALLDATASIZE SUB PUSH1 0x20 DUP2 LT ISZERO PUSH2 0x144 JUMPI PUSH1 0x0 DUP1 REVERT JUMPDEST DUP2 ADD SWAP1 DUP1 DUP1 CALLDATALOAD SWAP1 PUSH1 0x20 ADD SWAP1 SWAP3 SWAP2 SWAP1 POP POP POP PUSH2 0x3E3 JUMP JUMPDEST PUSH1 0x40 MLOAD DUP1 DUP6 PUSH20 0xFFFFFFFFFFFFFFFFFFFFFFFFFFFFFFFFFFFFFFFF AND DUP2 MSTORE PUSH1 0x20 ADD DUP5 DUP2 MSTORE PUSH1 0x20 ADD DUP4 DUP2 MSTORE PUSH1 0x20 ADD DUP3 DUP2 MSTORE PUSH1 0x20 ADD SWAP5 POP POP POP POP POP PUSH1 0x40 MLOAD DUP1 SWAP2 SUB SWAP1 RETURN JUMPDEST PUSH2 0x1A3 PUSH2 0x440 JUMP JUMPDEST PUSH1 0x40 MLOAD DUP1 DUP3 DUP2 MSTORE PUSH1 0x20 ADD SWAP2 POP POP PUSH1 0x40 MLOAD DUP1 SWAP2 SUB SWAP1 RETURN JUMPDEST PUSH2 0x1EF PUSH1 0x4 DUP1 CALLDATASIZE SUB PUSH1 0x40 DUP2 LT ISZERO PUSH2 0x1CF JUMPI PUSH1 0x0 DUP1 REVERT JUMPDEST DUP2 ADD SWAP1 DUP1 DUP1 CALLDATALOAD SWAP1 PUSH1 0x20 ADD SWAP1 SWAP3 SWAP2 SWAP1 DUP1 CALLDATALOAD SWAP1 PUSH1 0x20 ADD SWAP1 SWAP3 SWAP2 SWAP1 POP POP POP PUSH2 0x446 JUMP JUMPDEST STOP JUMPDEST PUSH2 0x1F9 PUSH2 0x753 JUMP JUMPDEST PUSH1 0x40 MLOAD DUP1 DUP3 DUP2 MSTORE PUSH1 0x20 ADD SWAP2 POP POP PUSH1 0x40 MLOAD DUP1 SWAP2 SUB SWAP1 RETURN JUMPDEST PUSH2 0x25B PUSH1 0x4 DUP1 CALLDATASIZE SUB PUSH1 0x40 DUP2 LT ISZERO PUSH2 0x225 JUMPI PUSH1 0x0 DUP1 REVERT JUMPDEST DUP2 ADD SWAP1 DUP1 DUP1 CALLDATALOAD SWAP1 PUSH1 0x20 ADD SWAP1 SWAP3 SWAP2 SWAP1 DUP1 CALLDATALOAD PUSH20 0xFFFFFFFFFFFFFFFFFFFFFFFFFFFFFFFFFFFFFFFF AND SWAP1 PUSH1 0x20 ADD SWAP1 SWAP3 SWAP2 SWAP1 POP POP POP PUSH2 0x759 JUMP JUMPDEST PUSH1 0x40 MLOAD DUP1 DUP4 DUP2 MSTORE PUSH1 0x20 ADD DUP3 DUP2 MSTORE PUSH1 0x20 ADD SWAP3 POP POP POP PUSH1 0x40 MLOAD DUP1 SWAP2 SUB SWAP1 RETURN JUMPDEST PUSH2 0x2AE PUSH1 0x4 DUP1 CALLDATASIZE SUB PUSH1 0x40 DUP2 LT ISZERO PUSH2 0x28E JUMPI PUSH1 0x0 DUP1 REVERT JUMPDEST DUP2 ADD SWAP1 DUP1 DUP1 CALLDATALOAD SWAP1 PUSH1 0x20 ADD SWAP1 SWAP3 SWAP2 SWAP1 DUP1 CALLDATALOAD SWAP1 PUSH1 0x20 ADD SWAP1 SWAP3 SWAP2 SWAP1 POP POP POP PUSH2 0x78A JUMP JUMPDEST STOP JUMPDEST PUSH1 0x0 PUSH1 0x1 DUP1 SLOAD SWAP1 POP SWAP1 POP SWAP1 JUMP JUMPDEST PUSH1 0x0 DUP1 SLOAD SWAP1 PUSH2 0x100 EXP SWAP1 DIV PUSH20 0xFFFFFFFFFFFFFFFFFFFFFFFFFFFFFFFFFFFFFFFF AND DUP2 JUMP JUMPDEST PUSH1 0x0 PUSH1 0x4 SLOAD NUMBER GT PUSH2 0x2F4 JUMPI PUSH1 0x4 SLOAD PUSH2 0x2F6 JUMP JUMPDEST NUMBER JUMPDEST SWAP1 POP PUSH2 0x30E PUSH1 0x64 PUSH1 0x3 SLOAD PUSH2 0xA2D SWAP1 SWAP2 SWAP1 PUSH4 0xFFFFFFFF AND JUMP JUMPDEST PUSH1 0x3 DUP2 SWAP1 SSTORE POP PUSH1 0x1 PUSH1 0x40 MLOAD DUP1 PUSH1 0x80 ADD PUSH1 0x40 MSTORE DUP1 DUP5 PUSH20 0xFFFFFFFFFFFFFFFFFFFFFFFFFFFFFFFFFFFFFFFF AND DUP2 MSTORE PUSH1 0x20 ADD PUSH1 0x64 DUP2 MSTORE PUSH1 0x20 ADD DUP4 DUP2 MSTORE PUSH1 0x20 ADD PUSH1 0x0 DUP2 MSTORE POP SWAP1 DUP1 PUSH1 0x1 DUP2 SLOAD ADD DUP1 DUP3 SSTORE DUP1 SWAP2 POP POP PUSH1 0x1 SWAP1 SUB SWAP1 PUSH1 0x0 MSTORE PUSH1 0x20 PUSH1 0x0 KECCAK256 SWAP1 PUSH1 0x4 MUL ADD PUSH1 0x0 SWAP1 SWAP2 SWAP1 SWAP2 SWAP1 SWAP2 POP PUSH1 0x0 DUP3 ADD MLOAD DUP2 PUSH1 0x0 ADD PUSH1 0x0 PUSH2 0x100 EXP DUP2 SLOAD DUP2 PUSH20 0xFFFFFFFFFFFFFFFFFFFFFFFFFFFFFFFFFFFFFFFF MUL NOT AND SWAP1 DUP4 PUSH20 0xFFFFFFFFFFFFFFFFFFFFFFFFFFFFFFFFFFFFFFFF AND MUL OR SWAP1 SSTORE POP PUSH1 0x20 DUP3 ADD MLOAD DUP2 PUSH1 0x1 ADD SSTORE PUSH1 0x40 DUP3 ADD MLOAD DUP2 PUSH1 0x2 ADD SSTORE PUSH1 0x60 DUP3 ADD MLOAD DUP2 PUSH1 0x3 ADD SSTORE POP POP POP POP JUMP JUMPDEST PUSH1 0x1 DUP2 DUP2 SLOAD DUP2 LT PUSH2 0x3F0 JUMPI INVALID JUMPDEST SWAP1 PUSH1 0x0 MSTORE PUSH1 0x20 PUSH1 0x0 KECCAK256 SWAP1 PUSH1 0x4 MUL ADD PUSH1 0x0 SWAP2 POP SWAP1 POP DUP1 PUSH1 0x0 ADD PUSH1 0x0 SWAP1 SLOAD SWAP1 PUSH2 0x100 EXP SWAP1 DIV PUSH20 0xFFFFFFFFFFFFFFFFFFFFFFFFFFFFFFFFFFFFFFFF AND SWAP1 DUP1 PUSH1 0x1 ADD SLOAD SWAP1 DUP1 PUSH1 0x2 ADD SLOAD SWAP1 DUP1 PUSH1 0x3 ADD SLOAD SWAP1 POP DUP5 JUMP JUMPDEST PUSH1 0x3 SLOAD DUP2 JUMP JUMPDEST PUSH1 0x0 PUSH1 0x1 DUP4 DUP2 SLOAD DUP2 LT PUSH2 0x455 JUMPI INVALID JUMPDEST SWAP1 PUSH1 0x0 MSTORE PUSH1 0x20 PUSH1 0x0 KECCAK256 SWAP1 PUSH1 0x4 MUL ADD SWAP1 POP PUSH1 0x0 PUSH1 0x2 PUSH1 0x0 DUP6 DUP2 MSTORE PUSH1 0x20 ADD SWAP1 DUP2 MSTORE PUSH1 0x20 ADD PUSH1 0x0 KECCAK256 PUSH1 0x0 CALLER PUSH20 0xFFFFFFFFFFFFFFFFFFFFFFFFFFFFFFFFFFFFFFFF AND PUSH20 0xFFFFFFFFFFFFFFFFFFFFFFFFFFFFFFFFFFFFFFFF AND DUP2 MSTORE PUSH1 0x20 ADD SWAP1 DUP2 MSTORE PUSH1 0x20 ADD PUSH1 0x0 KECCAK256 SWAP1 POP DUP3 DUP2 PUSH1 0x0 ADD SLOAD LT ISZERO PUSH2 0x533 JUMPI PUSH1 0x40 MLOAD PUSH32 0x8C379A000000000000000000000000000000000000000000000000000000000 DUP2 MSTORE PUSH1 0x4 ADD DUP1 DUP1 PUSH1 0x20 ADD DUP3 DUP2 SUB DUP3 MSTORE PUSH1 0x12 DUP2 MSTORE PUSH1 0x20 ADD DUP1 PUSH32 0x77697468647261773A206E6F7420676F6F640000000000000000000000000000 DUP2 MSTORE POP PUSH1 0x20 ADD SWAP2 POP POP PUSH1 0x40 MLOAD DUP1 SWAP2 SUB SWAP1 REVERT JUMPDEST PUSH2 0x53C DUP5 PUSH2 0xAB5 JUMP JUMPDEST PUSH1 0x0 PUSH2 0x586 DUP3 PUSH1 0x1 ADD SLOAD PUSH2 0x578 PUSH5 0xE8D4A51000 PUSH2 0x56A DUP8 PUSH1 0x3 ADD SLOAD DUP8 PUSH1 0x0 ADD SLOAD PUSH2 0xD1F SWAP1 SWAP2 SWAP1 PUSH4 0xFFFFFFFF AND JUMP JUMPDEST PUSH2 0xDA5 SWAP1 SWAP2 SWAP1 PUSH4 0xFFFFFFFF AND JUMP JUMPDEST PUSH2 0xDEF SWAP1 SWAP2 SWAP1 PUSH4 0xFFFFFFFF AND JUMP JUMPDEST SWAP1 POP PUSH1 0x0 DUP1 SLOAD SWAP1 PUSH2 0x100 EXP SWAP1 DIV PUSH20 0xFFFFFFFFFFFFFFFFFFFFFFFFFFFFFFFFFFFFFFFF AND PUSH20 0xFFFFFFFFFFFFFFFFFFFFFFFFFFFFFFFFFFFFFFFF AND PUSH4 0xA9059CBB CALLER DUP4 PUSH1 0x40 MLOAD DUP4 PUSH4 0xFFFFFFFF AND PUSH1 0xE0 SHL DUP2 MSTORE PUSH1 0x4 ADD DUP1 DUP4 PUSH20 0xFFFFFFFFFFFFFFFFFFFFFFFFFFFFFFFFFFFFFFFF AND DUP2 MSTORE PUSH1 0x20 ADD DUP3 DUP2 MSTORE PUSH1 0x20 ADD SWAP3 POP POP POP PUSH1 0x20 PUSH1 0x40 MLOAD DUP1 DUP4 SUB DUP2 PUSH1 0x0 DUP8 DUP1 EXTCODESIZE ISZERO DUP1 ISZERO PUSH2 0x619 JUMPI PUSH1 0x0 DUP1 REVERT JUMPDEST POP GAS CALL ISZERO DUP1 ISZERO PUSH2 0x62D JUMPI RETURNDATASIZE PUSH1 0x0 DUP1 RETURNDATACOPY RETURNDATASIZE PUSH1 0x0 REVERT JUMPDEST POP POP POP POP PUSH1 0x40 MLOAD RETURNDATASIZE PUSH1 0x20 DUP2 LT ISZERO PUSH2 0x643 JUMPI PUSH1 0x0 DUP1 REVERT JUMPDEST DUP2 ADD SWAP1 DUP1 DUP1 MLOAD SWAP1 PUSH1 0x20 ADD SWAP1 SWAP3 SWAP2 SWAP1 POP POP POP POP PUSH2 0x66C DUP5 DUP4 PUSH1 0x0 ADD SLOAD PUSH2 0xDEF SWAP1 SWAP2 SWAP1 PUSH4 0xFFFFFFFF AND JUMP JUMPDEST DUP3 PUSH1 0x0 ADD DUP2 SWAP1 SSTORE POP PUSH2 0x6A6 PUSH5 0xE8D4A51000 PUSH2 0x698 DUP6 PUSH1 0x3 ADD SLOAD DUP6 PUSH1 0x0 ADD SLOAD PUSH2 0xD1F SWAP1 SWAP2 SWAP1 PUSH4 0xFFFFFFFF AND JUMP JUMPDEST PUSH2 0xDA5 SWAP1 SWAP2 SWAP1 PUSH4 0xFFFFFFFF AND JUMP JUMPDEST DUP3 PUSH1 0x1 ADD DUP2 SWAP1 SSTORE POP PUSH2 0x6FD CALLER DUP6 DUP6 PUSH1 0x0 ADD PUSH1 0x0 SWAP1 SLOAD SWAP1 PUSH2 0x100 EXP SWAP1 DIV PUSH20 0xFFFFFFFFFFFFFFFFFFFFFFFFFFFFFFFFFFFFFFFF AND PUSH20 0xFFFFFFFFFFFFFFFFFFFFFFFFFFFFFFFFFFFFFFFF AND PUSH2 0xE39 SWAP1 SWAP3 SWAP2 SWAP1 PUSH4 0xFFFFFFFF AND JUMP JUMPDEST DUP5 CALLER PUSH20 0xFFFFFFFFFFFFFFFFFFFFFFFFFFFFFFFFFFFFFFFF AND PUSH32 0xF279E6A1F5E320CCA91135676D9CB6E44CA8A08C0B88342BCDB1144F6511B568 DUP7 PUSH1 0x40 MLOAD DUP1 DUP3 DUP2 MSTORE PUSH1 0x20 ADD SWAP2 POP POP PUSH1 0x40 MLOAD DUP1 SWAP2 SUB SWAP1 LOG3 POP POP POP POP POP JUMP JUMPDEST PUSH1 0x4 SLOAD DUP2 JUMP JUMPDEST PUSH1 0x2 PUSH1 0x20 MSTORE DUP2 PUSH1 0x0 MSTORE PUSH1 0x40 PUSH1 0x0 KECCAK256 PUSH1 0x20 MSTORE DUP1 PUSH1 0x0 MSTORE PUSH1 0x40 PUSH1 0x0 KECCAK256 PUSH1 0x0 SWAP2 POP SWAP2 POP POP DUP1 PUSH1 0x0 ADD SLOAD SWAP1 DUP1 PUSH1 0x1 ADD SLOAD SWAP1 POP DUP3 JUMP JUMPDEST PUSH1 0x0 PUSH1 0x1 DUP4 DUP2 SLOAD DUP2 LT PUSH2 0x799 JUMPI INVALID JUMPDEST SWAP1 PUSH1 0x0 MSTORE PUSH1 0x20 PUSH1 0x0 KECCAK256 SWAP1 PUSH1 0x4 MUL ADD SWAP1 POP PUSH1 0x0 PUSH1 0x2 PUSH1 0x0 DUP6 DUP2 MSTORE PUSH1 0x20 ADD SWAP1 DUP2 MSTORE PUSH1 0x20 ADD PUSH1 0x0 KECCAK256 PUSH1 0x0 CALLER PUSH20 0xFFFFFFFFFFFFFFFFFFFFFFFFFFFFFFFFFFFFFFFF AND PUSH20 0xFFFFFFFFFFFFFFFFFFFFFFFFFFFFFFFFFFFFFFFF AND DUP2 MSTORE PUSH1 0x20 ADD SWAP1 DUP2 MSTORE PUSH1 0x20 ADD PUSH1 0x0 KECCAK256 SWAP1 POP PUSH2 0x806 DUP5 PUSH2 0xAB5 JUMP JUMPDEST PUSH1 0x0 DUP2 PUSH1 0x0 ADD SLOAD GT ISZERO PUSH2 0x92E JUMPI PUSH1 0x0 PUSH2 0x85D DUP3 PUSH1 0x1 ADD SLOAD PUSH2 0x84F PUSH5 0xE8D4A51000 PUSH2 0x841 DUP8 PUSH1 0x3 ADD SLOAD DUP8 PUSH1 0x0 ADD SLOAD PUSH2 0xD1F SWAP1 SWAP2 SWAP1 PUSH4 0xFFFFFFFF AND JUMP JUMPDEST PUSH2 0xDA5 SWAP1 SWAP2 SWAP1 PUSH4 0xFFFFFFFF AND JUMP JUMPDEST PUSH2 0xDEF SWAP1 SWAP2 SWAP1 PUSH4 0xFFFFFFFF AND JUMP JUMPDEST SWAP1 POP PUSH1 0x0 DUP1 SLOAD SWAP1 PUSH2 0x100 EXP SWAP1 DIV PUSH20 0xFFFFFFFFFFFFFFFFFFFFFFFFFFFFFFFFFFFFFFFF AND PUSH20 0xFFFFFFFFFFFFFFFFFFFFFFFFFFFFFFFFFFFFFFFF AND PUSH4 0xA9059CBB CALLER DUP4 PUSH1 0x40 MLOAD DUP4 PUSH4 0xFFFFFFFF AND PUSH1 0xE0 SHL DUP2 MSTORE PUSH1 0x4 ADD DUP1 DUP4 PUSH20 0xFFFFFFFFFFFFFFFFFFFFFFFFFFFFFFFFFFFFFFFF AND DUP2 MSTORE PUSH1 0x20 ADD DUP3 DUP2 MSTORE PUSH1 0x20 ADD SWAP3 POP POP POP PUSH1 0x20 PUSH1 0x40 MLOAD DUP1 DUP4 SUB DUP2 PUSH1 0x0 DUP8 DUP1 EXTCODESIZE ISZERO DUP1 ISZERO PUSH2 0x8F0 JUMPI PUSH1 0x0 DUP1 REVERT JUMPDEST POP GAS CALL ISZERO DUP1 ISZERO PUSH2 0x904 JUMPI RETURNDATASIZE PUSH1 0x0 DUP1 RETURNDATACOPY RETURNDATASIZE PUSH1 0x0 REVERT JUMPDEST POP POP POP POP PUSH1 0x40 MLOAD RETURNDATASIZE PUSH1 0x20 DUP2 LT ISZERO PUSH2 0x91A JUMPI PUSH1 0x0 DUP1 REVERT JUMPDEST DUP2 ADD SWAP1 DUP1 DUP1 MLOAD SWAP1 PUSH1 0x20 ADD SWAP1 SWAP3 SWAP2 SWAP1 POP POP POP POP POP JUMPDEST PUSH2 0x97F CALLER ADDRESS DUP6 DUP6 PUSH1 0x0 ADD PUSH1 0x0 SWAP1 SLOAD SWAP1 PUSH2 0x100 EXP SWAP1 DIV PUSH20 0xFFFFFFFFFFFFFFFFFFFFFFFFFFFFFFFFFFFFFFFF AND PUSH20 0xFFFFFFFFFFFFFFFFFFFFFFFFFFFFFFFFFFFFFFFF AND PUSH2 0xEDB SWAP1 SWAP4 SWAP3 SWAP2 SWAP1 PUSH4 0xFFFFFFFF AND JUMP JUMPDEST PUSH2 0x996 DUP4 DUP3 PUSH1 0x0 ADD SLOAD PUSH2 0xA2D SWAP1 SWAP2 SWAP1 PUSH4 0xFFFFFFFF AND JUMP JUMPDEST DUP2 PUSH1 0x0 ADD DUP2 SWAP1 SSTORE POP PUSH2 0x9D0 PUSH5 0xE8D4A51000 PUSH2 0x9C2 DUP5 PUSH1 0x3 ADD SLOAD DUP5 PUSH1 0x0 ADD SLOAD PUSH2 0xD1F SWAP1 SWAP2 SWAP1 PUSH4 0xFFFFFFFF AND JUMP JUMPDEST PUSH2 0xDA5 SWAP1 SWAP2 SWAP1 PUSH4 0xFFFFFFFF AND JUMP JUMPDEST DUP2 PUSH1 0x1 ADD DUP2 SWAP1 SSTORE POP DUP4 CALLER PUSH20 0xFFFFFFFFFFFFFFFFFFFFFFFFFFFFFFFFFFFFFFFF AND PUSH32 0x90890809C654F11D6E72A28FA60149770A0D11EC6C92319D6CEB2BB0A4EA1A15 DUP6 PUSH1 0x40 MLOAD DUP1 DUP3 DUP2 MSTORE PUSH1 0x20 ADD SWAP2 POP POP PUSH1 0x40 MLOAD DUP1 SWAP2 SUB SWAP1 LOG3 POP POP POP POP JUMP JUMPDEST PUSH1 0x0 DUP1 DUP3 DUP5 ADD SWAP1 POP DUP4 DUP2 LT ISZERO PUSH2 0xAAB JUMPI PUSH1 0x40 MLOAD PUSH32 0x8C379A000000000000000000000000000000000000000000000000000000000 DUP2 MSTORE PUSH1 0x4 ADD DUP1 DUP1 PUSH1 0x20 ADD DUP3 DUP2 SUB DUP3 MSTORE PUSH1 0x1B DUP2 MSTORE PUSH1 0x20 ADD DUP1 PUSH32 0x536166654D6174683A206164646974696F6E206F766572666C6F770000000000 DUP2 MSTORE POP PUSH1 0x20 ADD SWAP2 POP POP PUSH1 0x40 MLOAD DUP1 SWAP2 SUB SWAP1 REVERT JUMPDEST DUP1 SWAP2 POP POP SWAP3 SWAP2 POP POP JUMP JUMPDEST PUSH1 0x0 PUSH1 0x1 DUP3 DUP2 SLOAD DUP2 LT PUSH2 0xAC4 JUMPI INVALID JUMPDEST SWAP1 PUSH1 0x0 MSTORE PUSH1 0x20 PUSH1 0x0 KECCAK256 SWAP1 PUSH1 0x4 MUL ADD SWAP1 POP DUP1 PUSH1 0x2 ADD SLOAD NUMBER GT PUSH2 0xAE5 JUMPI POP PUSH2 0xD1C JUMP JUMPDEST PUSH1 0x0 DUP2 PUSH1 0x0 ADD PUSH1 0x0 SWAP1 SLOAD SWAP1 PUSH2 0x100 EXP SWAP1 DIV PUSH20 0xFFFFFFFFFFFFFFFFFFFFFFFFFFFFFFFFFFFFFFFF AND PUSH20 0xFFFFFFFFFFFFFFFFFFFFFFFFFFFFFFFFFFFFFFFF AND PUSH4 0x70A08231 ADDRESS PUSH1 0x40 MLOAD DUP3 PUSH4 0xFFFFFFFF AND PUSH1 0xE0 SHL DUP2 MSTORE PUSH1 0x4 ADD DUP1 DUP3 PUSH20 0xFFFFFFFFFFFFFFFFFFFFFFFFFFFFFFFFFFFFFFFF AND DUP2 MSTORE PUSH1 0x20 ADD SWAP2 POP POP PUSH1 0x20 PUSH1 0x40 MLOAD DUP1 DUP4 SUB DUP2 DUP7 DUP1 EXTCODESIZE ISZERO DUP1 ISZERO PUSH2 0xB72 JUMPI PUSH1 0x0 DUP1 REVERT JUMPDEST POP GAS STATICCALL ISZERO DUP1 ISZERO PUSH2 0xB86 JUMPI RETURNDATASIZE PUSH1 0x0 DUP1 RETURNDATACOPY RETURNDATASIZE PUSH1 0x0 REVERT JUMPDEST POP POP POP POP PUSH1 0x40 MLOAD RETURNDATASIZE PUSH1 0x20 DUP2 LT ISZERO PUSH2 0xB9C JUMPI PUSH1 0x0 DUP1 REVERT JUMPDEST DUP2 ADD SWAP1 DUP1 DUP1 MLOAD SWAP1 PUSH1 0x20 ADD SWAP1 SWAP3 SWAP2 SWAP1 POP POP POP SWAP1 POP PUSH1 0x0 DUP2 EQ ISZERO PUSH2 0xBC8 JUMPI NUMBER DUP3 PUSH1 0x2 ADD DUP2 SWAP1 SSTORE POP POP POP PUSH2 0xD1C JUMP JUMPDEST PUSH1 0x0 PUSH2 0xBD8 DUP4 PUSH1 0x2 ADD SLOAD NUMBER PUSH2 0xF9C JUMP JUMPDEST SWAP1 POP PUSH1 0x0 PUSH2 0xC1B PUSH1 0x3 SLOAD PUSH2 0xC0D DUP7 PUSH1 0x1 ADD SLOAD PUSH2 0xBFF PUSH2 0x3E8 DUP8 PUSH2 0xD1F SWAP1 SWAP2 SWAP1 PUSH4 0xFFFFFFFF AND JUMP JUMPDEST PUSH2 0xD1F SWAP1 SWAP2 SWAP1 PUSH4 0xFFFFFFFF AND JUMP JUMPDEST PUSH2 0xDA5 SWAP1 SWAP2 SWAP1 PUSH4 0xFFFFFFFF AND JUMP JUMPDEST SWAP1 POP PUSH1 0x0 DUP1 SLOAD SWAP1 PUSH2 0x100 EXP SWAP1 DIV PUSH20 0xFFFFFFFFFFFFFFFFFFFFFFFFFFFFFFFFFFFFFFFF AND PUSH20 0xFFFFFFFFFFFFFFFFFFFFFFFFFFFFFFFFFFFFFFFF AND PUSH4 0x40C10F19 ADDRESS DUP4 PUSH1 0x40 MLOAD DUP4 PUSH4 0xFFFFFFFF AND PUSH1 0xE0 SHL DUP2 MSTORE PUSH1 0x4 ADD DUP1 DUP4 PUSH20 0xFFFFFFFFFFFFFFFFFFFFFFFFFFFFFFFFFFFFFFFF AND DUP2 MSTORE PUSH1 0x20 ADD DUP3 DUP2 MSTORE PUSH1 0x20 ADD SWAP3 POP POP POP PUSH1 0x0 PUSH1 0x40 MLOAD DUP1 DUP4 SUB DUP2 PUSH1 0x0 DUP8 DUP1 EXTCODESIZE ISZERO DUP1 ISZERO PUSH2 0xCAE JUMPI PUSH1 0x0 DUP1 REVERT JUMPDEST POP GAS CALL ISZERO DUP1 ISZERO PUSH2 0xCC2 JUMPI RETURNDATASIZE PUSH1 0x0 DUP1 RETURNDATACOPY RETURNDATASIZE PUSH1 0x0 REVERT JUMPDEST POP POP POP POP PUSH2 0xD06 PUSH2 0xCF3 DUP5 PUSH2 0xCE5 PUSH5 0xE8D4A51000 DUP6 PUSH2 0xD1F SWAP1 SWAP2 SWAP1 PUSH4 0xFFFFFFFF AND JUMP JUMPDEST PUSH2 0xDA5 SWAP1 SWAP2 SWAP1 PUSH4 0xFFFFFFFF AND JUMP JUMPDEST DUP6 PUSH1 0x3 ADD SLOAD PUSH2 0xA2D SWAP1 SWAP2 SWAP1 PUSH4 0xFFFFFFFF AND JUMP JUMPDEST DUP5 PUSH1 0x3 ADD DUP2 SWAP1 SSTORE POP NUMBER DUP5 PUSH1 0x2 ADD DUP2 SWAP1 SSTORE POP POP POP POP POP JUMPDEST POP JUMP JUMPDEST PUSH1 0x0 DUP1 DUP4 EQ ISZERO PUSH2 0xD32 JUMPI PUSH1 0x0 SWAP1 POP PUSH2 0xD9F JUMP JUMPDEST PUSH1 0x0 DUP3 DUP5 MUL SWAP1 POP DUP3 DUP5 DUP3 DUP2 PUSH2 0xD43 JUMPI INVALID JUMPDEST DIV EQ PUSH2 0xD9A JUMPI PUSH1 0x40 MLOAD PUSH32 0x8C379A000000000000000000000000000000000000000000000000000000000 DUP2 MSTORE PUSH1 0x4 ADD DUP1 DUP1 PUSH1 0x20 ADD DUP3 DUP2 SUB DUP3 MSTORE PUSH1 0x21 DUP2 MSTORE PUSH1 0x20 ADD DUP1 PUSH2 0x1498 PUSH1 0x21 SWAP2 CODECOPY PUSH1 0x40 ADD SWAP2 POP POP PUSH1 0x40 MLOAD DUP1 SWAP2 SUB SWAP1 REVERT JUMPDEST DUP1 SWAP2 POP POP JUMPDEST SWAP3 SWAP2 POP POP JUMP JUMPDEST PUSH1 0x0 PUSH2 0xDE7 DUP4 DUP4 PUSH1 0x40 MLOAD DUP1 PUSH1 0x40 ADD PUSH1 0x40 MSTORE DUP1 PUSH1 0x1A DUP2 MSTORE PUSH1 0x20 ADD PUSH32 0x536166654D6174683A206469766973696F6E206279207A65726F000000000000 DUP2 MSTORE POP PUSH2 0xFB9 JUMP JUMPDEST SWAP1 POP SWAP3 SWAP2 POP POP JUMP JUMPDEST PUSH1 0x0 PUSH2 0xE31 DUP4 DUP4 PUSH1 0x40 MLOAD DUP1 PUSH1 0x40 ADD PUSH1 0x40 MSTORE DUP1 PUSH1 0x1E DUP2 MSTORE PUSH1 0x20 ADD PUSH32 0x536166654D6174683A207375627472616374696F6E206F766572666C6F770000 DUP2 MSTORE POP PUSH2 0x107F JUMP JUMPDEST SWAP1 POP SWAP3 SWAP2 POP POP JUMP JUMPDEST PUSH2 0xED6 DUP4 PUSH4 0xA9059CBB PUSH1 0xE0 SHL DUP5 DUP5 PUSH1 0x40 MLOAD PUSH1 0x24 ADD DUP1 DUP4 PUSH20 0xFFFFFFFFFFFFFFFFFFFFFFFFFFFFFFFFFFFFFFFF AND DUP2 MSTORE PUSH1 0x20 ADD DUP3 DUP2 MSTORE PUSH1 0x20 ADD SWAP3 POP POP POP PUSH1 0x40 MLOAD PUSH1 0x20 DUP2 DUP4 SUB SUB DUP2 MSTORE SWAP1 PUSH1 0x40 MSTORE SWAP1 PUSH28 0xFFFFFFFFFFFFFFFFFFFFFFFFFFFFFFFFFFFFFFFFFFFFFFFFFFFFFFFF NOT AND PUSH1 0x20 DUP3 ADD DUP1 MLOAD PUSH28 0xFFFFFFFFFFFFFFFFFFFFFFFFFFFFFFFFFFFFFFFFFFFFFFFFFFFFFFFF DUP4 DUP2 DUP4 AND OR DUP4 MSTORE POP POP POP POP PUSH2 0x113F JUMP JUMPDEST POP POP POP JUMP JUMPDEST PUSH2 0xF96 DUP5 PUSH4 0x23B872DD PUSH1 0xE0 SHL DUP6 DUP6 DUP6 PUSH1 0x40 MLOAD PUSH1 0x24 ADD DUP1 DUP5 PUSH20 0xFFFFFFFFFFFFFFFFFFFFFFFFFFFFFFFFFFFFFFFF AND DUP2 MSTORE PUSH1 0x20 ADD DUP4 PUSH20 0xFFFFFFFFFFFFFFFFFFFFFFFFFFFFFFFFFFFFFFFF AND DUP2 MSTORE PUSH1 0x20 ADD DUP3 DUP2 MSTORE PUSH1 0x20 ADD SWAP4 POP POP POP POP PUSH1 0x40 MLOAD PUSH1 0x20 DUP2 DUP4 SUB SUB DUP2 MSTORE SWAP1 PUSH1 0x40 MSTORE SWAP1 PUSH28 0xFFFFFFFFFFFFFFFFFFFFFFFFFFFFFFFFFFFFFFFFFFFFFFFFFFFFFFFF NOT AND PUSH1 0x20 DUP3 ADD DUP1 MLOAD PUSH28 0xFFFFFFFFFFFFFFFFFFFFFFFFFFFFFFFFFFFFFFFFFFFFFFFFFFFFFFFF DUP4 DUP2 DUP4 AND OR DUP4 MSTORE POP POP POP POP PUSH2 0x113F JUMP JUMPDEST POP POP POP POP JUMP JUMPDEST PUSH1 0x0 PUSH2 0xFB1 DUP4 DUP4 PUSH2 0xDEF SWAP1 SWAP2 SWAP1 PUSH4 0xFFFFFFFF AND JUMP JUMPDEST SWAP1 POP SWAP3 SWAP2 POP POP JUMP JUMPDEST PUSH1 0x0 DUP1 DUP4 GT DUP3 SWAP1 PUSH2 0x1065 JUMPI PUSH1 0x40 MLOAD PUSH32 0x8C379A000000000000000000000000000000000000000000000000000000000 DUP2 MSTORE PUSH1 0x4 ADD DUP1 DUP1 PUSH1 0x20 ADD DUP3 DUP2 SUB DUP3 MSTORE DUP4 DUP2 DUP2 MLOAD DUP2 MSTORE PUSH1 0x20 ADD SWAP2 POP DUP1 MLOAD SWAP1 PUSH1 0x20 ADD SWAP1 DUP1 DUP4 DUP4 PUSH1 0x0 JUMPDEST DUP4 DUP2 LT ISZERO PUSH2 0x102A JUMPI DUP1 DUP3 ADD MLOAD DUP2 DUP5 ADD MSTORE PUSH1 0x20 DUP2 ADD SWAP1 POP PUSH2 0x100F JUMP JUMPDEST POP POP POP POP SWAP1 POP SWAP1 DUP2 ADD SWAP1 PUSH1 0x1F AND DUP1 ISZERO PUSH2 0x1057 JUMPI DUP1 DUP3 SUB DUP1 MLOAD PUSH1 0x1 DUP4 PUSH1 0x20 SUB PUSH2 0x100 EXP SUB NOT AND DUP2 MSTORE PUSH1 0x20 ADD SWAP2 POP JUMPDEST POP SWAP3 POP POP POP PUSH1 0x40 MLOAD DUP1 SWAP2 SUB SWAP1 REVERT JUMPDEST POP PUSH1 0x0 DUP4 DUP6 DUP2 PUSH2 0x1071 JUMPI INVALID JUMPDEST DIV SWAP1 POP DUP1 SWAP2 POP POP SWAP4 SWAP3 POP POP POP JUMP JUMPDEST PUSH1 0x0 DUP4 DUP4 GT ISZERO DUP3 SWAP1 PUSH2 0x112C JUMPI PUSH1 0x40 MLOAD PUSH32 0x8C379A000000000000000000000000000000000000000000000000000000000 DUP2 MSTORE PUSH1 0x4 ADD DUP1 DUP1 PUSH1 0x20 ADD DUP3 DUP2 SUB DUP3 MSTORE DUP4 DUP2 DUP2 MLOAD DUP2 MSTORE PUSH1 0x20 ADD SWAP2 POP DUP1 MLOAD SWAP1 PUSH1 0x20 ADD SWAP1 DUP1 DUP4 DUP4 PUSH1 0x0 JUMPDEST DUP4 DUP2 LT ISZERO PUSH2 0x10F1 JUMPI DUP1 DUP3 ADD MLOAD DUP2 DUP5 ADD MSTORE PUSH1 0x20 DUP2 ADD SWAP1 POP PUSH2 0x10D6 JUMP JUMPDEST POP POP POP POP SWAP1 POP SWAP1 DUP2 ADD SWAP1 PUSH1 0x1F AND DUP1 ISZERO PUSH2 0x111E JUMPI DUP1 DUP3 SUB DUP1 MLOAD PUSH1 0x1 DUP4 PUSH1 0x20 SUB PUSH2 0x100 EXP SUB NOT AND DUP2 MSTORE PUSH1 0x20 ADD SWAP2 POP JUMPDEST POP SWAP3 POP POP POP PUSH1 0x40 MLOAD DUP1 SWAP2 SUB SWAP1 REVERT JUMPDEST POP PUSH1 0x0 DUP4 DUP6 SUB SWAP1 POP DUP1 SWAP2 POP POP SWAP4 SWAP3 POP POP POP JUMP JUMPDEST PUSH1 0x60 PUSH2 0x11A1 DUP3 PUSH1 0x40 MLOAD DUP1 PUSH1 0x40 ADD PUSH1 0x40 MSTORE DUP1 PUSH1 0x20 DUP2 MSTORE PUSH1 0x20 ADD PUSH32 0x5361666545524332303A206C6F772D6C6576656C2063616C6C206661696C6564 DUP2 MSTORE POP DUP6 PUSH20 0xFFFFFFFFFFFFFFFFFFFFFFFFFFFFFFFFFFFFFFFF AND PUSH2 0x122E SWAP1 SWAP3 SWAP2 SWAP1 PUSH4 0xFFFFFFFF AND JUMP JUMPDEST SWAP1 POP PUSH1 0x0 DUP2 MLOAD GT ISZERO PUSH2 0x1229 JUMPI DUP1 DUP1 PUSH1 0x20 ADD SWAP1 MLOAD PUSH1 0x20 DUP2 LT ISZERO PUSH2 0x11C2 JUMPI PUSH1 0x0 DUP1 REVERT JUMPDEST DUP2 ADD SWAP1 DUP1 DUP1 MLOAD SWAP1 PUSH1 0x20 ADD SWAP1 SWAP3 SWAP2 SWAP1 POP POP POP PUSH2 0x1228 JUMPI PUSH1 0x40 MLOAD PUSH32 0x8C379A000000000000000000000000000000000000000000000000000000000 DUP2 MSTORE PUSH1 0x4 ADD DUP1 DUP1 PUSH1 0x20 ADD DUP3 DUP2 SUB DUP3 MSTORE PUSH1 0x2A DUP2 MSTORE PUSH1 0x20 ADD DUP1 PUSH2 0x14B9 PUSH1 0x2A SWAP2 CODECOPY PUSH1 0x40 ADD SWAP2 POP POP PUSH1 0x40 MLOAD DUP1 SWAP2 SUB SWAP1 REVERT JUMPDEST JUMPDEST POP POP POP JUMP JUMPDEST PUSH1 0x60 PUSH2 0x123D DUP5 DUP5 PUSH1 0x0 DUP6 PUSH2 0x1246 JUMP JUMPDEST SWAP1 POP SWAP4 SWAP3 POP POP POP JUMP JUMPDEST PUSH1 0x60 PUSH2 0x1251 DUP6 PUSH2 0x144C JUMP JUMPDEST PUSH2 0x12C3 JUMPI PUSH1 0x40 MLOAD PUSH32 0x8C379A000000000000000000000000000000000000000000000000000000000 DUP2 MSTORE PUSH1 0x4 ADD DUP1 DUP1 PUSH1 0x20 ADD DUP3 DUP2 SUB DUP3 MSTORE PUSH1 0x1D DUP2 MSTORE PUSH1 0x20 ADD DUP1 PUSH32 0x416464726573733A2063616C6C20746F206E6F6E2D636F6E7472616374000000 DUP2 MSTORE POP PUSH1 0x20 ADD SWAP2 POP POP PUSH1 0x40 MLOAD DUP1 SWAP2 SUB SWAP1 REVERT JUMPDEST PUSH1 0x0 PUSH1 0x60 DUP7 PUSH20 0xFFFFFFFFFFFFFFFFFFFFFFFFFFFFFFFFFFFFFFFF AND DUP6 DUP8 PUSH1 0x40 MLOAD DUP1 DUP3 DUP1 MLOAD SWAP1 PUSH1 0x20 ADD SWAP1 DUP1 DUP4 DUP4 JUMPDEST PUSH1 0x20 DUP4 LT PUSH2 0x1313 JUMPI DUP1 MLOAD DUP3 MSTORE PUSH1 0x20 DUP3 ADD SWAP2 POP PUSH1 0x20 DUP2 ADD SWAP1 POP PUSH1 0x20 DUP4 SUB SWAP3 POP PUSH2 0x12F0 JUMP JUMPDEST PUSH1 0x1 DUP4 PUSH1 0x20 SUB PUSH2 0x100 EXP SUB DUP1 NOT DUP3 MLOAD AND DUP2 DUP5 MLOAD AND DUP1 DUP3 OR DUP6 MSTORE POP POP POP POP POP POP SWAP1 POP ADD SWAP2 POP POP PUSH1 0x0 PUSH1 0x40 MLOAD DUP1 DUP4 SUB DUP2 DUP6 DUP8 GAS CALL SWAP3 POP POP POP RETURNDATASIZE DUP1 PUSH1 0x0 DUP2 EQ PUSH2 0x1375 JUMPI PUSH1 0x40 MLOAD SWAP2 POP PUSH1 0x1F NOT PUSH1 0x3F RETURNDATASIZE ADD AND DUP3 ADD PUSH1 0x40 MSTORE RETURNDATASIZE DUP3 MSTORE RETURNDATASIZE PUSH1 0x0 PUSH1 0x20 DUP5 ADD RETURNDATACOPY PUSH2 0x137A JUMP JUMPDEST PUSH1 0x60 SWAP2 POP JUMPDEST POP SWAP2 POP SWAP2 POP DUP2 ISZERO PUSH2 0x138F JUMPI DUP1 SWAP3 POP POP POP PUSH2 0x1444 JUMP JUMPDEST PUSH1 0x0 DUP2 MLOAD GT ISZERO PUSH2 0x13A2 JUMPI DUP1 MLOAD DUP1 DUP3 PUSH1 0x20 ADD REVERT JUMPDEST DUP4 PUSH1 0x40 MLOAD PUSH32 0x8C379A000000000000000000000000000000000000000000000000000000000 DUP2 MSTORE PUSH1 0x4 ADD DUP1 DUP1 PUSH1 0x20 ADD DUP3 DUP2 SUB DUP3 MSTORE DUP4 DUP2 DUP2 MLOAD DUP2 MSTORE PUSH1 0x20 ADD SWAP2 POP DUP1 MLOAD SWAP1 PUSH1 0x20 ADD SWAP1 DUP1 DUP4 DUP4 PUSH1 0x0 JUMPDEST DUP4 DUP2 LT ISZERO PUSH2 0x1409 JUMPI DUP1 DUP3 ADD MLOAD DUP2 DUP5 ADD MSTORE PUSH1 0x20 DUP2 ADD SWAP1 POP PUSH2 0x13EE JUMP JUMPDEST POP POP POP POP SWAP1 POP SWAP1 DUP2 ADD SWAP1 PUSH1 0x1F AND DUP1 ISZERO PUSH2 0x1436 JUMPI DUP1 DUP3 SUB DUP1 MLOAD PUSH1 0x1 DUP4 PUSH1 0x20 SUB PUSH2 0x100 EXP SUB NOT AND DUP2 MSTORE PUSH1 0x20 ADD SWAP2 POP JUMPDEST POP SWAP3 POP POP POP PUSH1 0x40 MLOAD DUP1 SWAP2 SUB SWAP1 REVERT JUMPDEST SWAP5 SWAP4 POP POP POP POP JUMP JUMPDEST PUSH1 0x0 DUP1 PUSH1 0x0 PUSH32 0xC5D2460186F7233C927E7DB2DCC703C0E500B653CA82273B7BFAD8045D85A470 PUSH1 0x0 SHL SWAP1 POP DUP4 EXTCODEHASH SWAP2 POP DUP1 DUP3 EQ ISZERO DUP1 ISZERO PUSH2 0x148E JUMPI POP PUSH1 0x0 DUP1 SHL DUP3 EQ ISZERO JUMPDEST SWAP3 POP POP POP SWAP2 SWAP1 POP JUMP INVALID MSTORE8 PUSH2 0x6665 0x4D PUSH2 0x7468 GASPRICE KECCAK256 PUSH14 0x756C7469706C69636174696F6E20 PUSH16 0x766572666C6F77536166654552433230 GASPRICE KECCAK256 GASLIMIT MSTORE NUMBER ORIGIN ADDRESS KECCAK256 PUSH16 0x7065726174696F6E20646964206E6F74 KECCAK256 PUSH20 0x756363656564A2646970667358221220958E05EC 0xEA SLOAD BYTE 0xCD LOG3 SWAP6 0xB6 DUP11 0xCE DUP1 EXTCODESIZE LOG2 0x2B 0xE3 0xE7 SWAP9 0xC9 JUMPI ISZERO SWAP15 0xEF JUMPI 0x4F SWAP3 SWAP7 MSTORE 0xC8 0xBD PUSH5 0x736F6C6343 STOP MOD 0xC STOP CALLER "
				},
				"gasEstimates": {
					"creation": {
						"codeDepositCost": "1080000",
						"executionCost": "infinite",
						"totalCost": "infinite"
					},
					"external": {
						"add(address)": "infinite",
						"deposit(uint256,uint256)": "infinite",
						"poolInfo(uint256)": "4610",
						"poolLength()": "1022",
						"startBlock()": "1049",
						"sushi()": "1067",
						"totalAllocPoint()": "1005",
						"userInfo(uint256,address)": "2173",
						"withdraw(uint256,uint256)": "infinite"
					},
					"internal": {
						"getMultiplier(uint256,uint256)": "infinite",
						"updatePool(uint256)": "infinite"
					}
				},
				"methodIdentifiers": {
					"add(address)": "0a3b0a4f",
					"deposit(uint256,uint256)": "e2bbb158",
					"poolInfo(uint256)": "1526fe27",
					"poolLength()": "081e3eda",
					"startBlock()": "48cd4cb1",
					"sushi()": "0a087903",
					"totalAllocPoint()": "17caf6f1",
					"userInfo(uint256,address)": "93f1a40b",
					"withdraw(uint256,uint256)": "441a3e70"
				}
			},
			"storageLayout": {
				"storage": [
					{
						"astId": 25,
						"contract": "PolarAI/Masterchef_HKHH.sol:MasterChef",
						"label": "sushi",
						"offset": 0,
						"slot": "0",
						"type": "t_contract(SushiToken)1072"
					},
					{
						"astId": 28,
						"contract": "PolarAI/Masterchef_HKHH.sol:MasterChef",
						"label": "poolInfo",
						"offset": 0,
						"slot": "1",
						"type": "t_array(t_struct(PoolInfo)23_storage)dyn_storage"
					},
					{
						"astId": 34,
						"contract": "PolarAI/Masterchef_HKHH.sol:MasterChef",
						"label": "userInfo",
						"offset": 0,
						"slot": "2",
						"type": "t_mapping(t_uint256,t_mapping(t_address,t_struct(UserInfo)14_storage))"
					},
					{
						"astId": 37,
						"contract": "PolarAI/Masterchef_HKHH.sol:MasterChef",
						"label": "totalAllocPoint",
						"offset": 0,
						"slot": "3",
						"type": "t_uint256"
					},
					{
						"astId": 40,
						"contract": "PolarAI/Masterchef_HKHH.sol:MasterChef",
						"label": "startBlock",
						"offset": 0,
						"slot": "4",
						"type": "t_uint256"
					}
				],
				"types": {
					"t_address": {
						"encoding": "inplace",
						"label": "address",
						"numberOfBytes": "20"
					},
					"t_array(t_struct(PoolInfo)23_storage)dyn_storage": {
						"base": "t_struct(PoolInfo)23_storage",
						"encoding": "dynamic_array",
						"label": "struct MasterChef.PoolInfo[]",
						"numberOfBytes": "32"
					},
					"t_contract(IERC20)1149": {
						"encoding": "inplace",
						"label": "contract IERC20",
						"numberOfBytes": "20"
					},
					"t_contract(SushiToken)1072": {
						"encoding": "inplace",
						"label": "contract SushiToken",
						"numberOfBytes": "20"
					},
					"t_mapping(t_address,t_struct(UserInfo)14_storage)": {
						"encoding": "mapping",
						"key": "t_address",
						"label": "mapping(address => struct MasterChef.UserInfo)",
						"numberOfBytes": "32",
						"value": "t_struct(UserInfo)14_storage"
					},
					"t_mapping(t_uint256,t_mapping(t_address,t_struct(UserInfo)14_storage))": {
						"encoding": "mapping",
						"key": "t_uint256",
						"label": "mapping(uint256 => mapping(address => struct MasterChef.UserInfo))",
						"numberOfBytes": "32",
						"value": "t_mapping(t_address,t_struct(UserInfo)14_storage)"
					},
					"t_struct(PoolInfo)23_storage": {
						"encoding": "inplace",
						"label": "struct MasterChef.PoolInfo",
						"members": [
							{
								"astId": 16,
								"contract": "PolarAI/Masterchef_HKHH.sol:MasterChef",
								"label": "lpToken",
								"offset": 0,
								"slot": "0",
								"type": "t_contract(IERC20)1149"
							},
							{
								"astId": 18,
								"contract": "PolarAI/Masterchef_HKHH.sol:MasterChef",
								"label": "allocPoint",
								"offset": 0,
								"slot": "1",
								"type": "t_uint256"
							},
							{
								"astId": 20,
								"contract": "PolarAI/Masterchef_HKHH.sol:MasterChef",
								"label": "lastRewardBlock",
								"offset": 0,
								"slot": "2",
								"type": "t_uint256"
							},
							{
								"astId": 22,
								"contract": "PolarAI/Masterchef_HKHH.sol:MasterChef",
								"label": "accSushiPerShare",
								"offset": 0,
								"slot": "3",
								"type": "t_uint256"
							}
						],
						"numberOfBytes": "128"
					},
					"t_struct(UserInfo)14_storage": {
						"encoding": "inplace",
						"label": "struct MasterChef.UserInfo",
						"members": [
							{
								"astId": 11,
								"contract": "PolarAI/Masterchef_HKHH.sol:MasterChef",
								"label": "amount",
								"offset": 0,
								"slot": "0",
								"type": "t_uint256"
							},
							{
								"astId": 13,
								"contract": "PolarAI/Masterchef_HKHH.sol:MasterChef",
								"label": "rewardDebt",
								"offset": 0,
								"slot": "1",
								"type": "t_uint256"
							}
						],
						"numberOfBytes": "64"
					},
					"t_uint256": {
						"encoding": "inplace",
						"label": "uint256",
						"numberOfBytes": "32"
					}
				}
			},
			"userdoc": {
				"kind": "user",
				"methods": {},
				"version": 1
			}
		}
	}
}